{
  "address": "0x0598f17479406e48d7B46B4321105282c6763385",
  "abi": [
    {
      "inputs": [
        {
          "internalType": "uint256[]",
          "name": "_arr",
          "type": "uint256[]"
        }
      ],
      "name": "getSum",
      "outputs": [
        {
          "internalType": "uint256",
          "name": "sum",
          "type": "uint256"
        }
      ],
      "stateMutability": "pure",
      "type": "function"
    },
    {
      "inputs": [
        {
          "internalType": "address payable[]",
          "name": "_addresses",
          "type": "address[]"
        },
        {
          "internalType": "uint256[]",
          "name": "_amounts",
          "type": "uint256[]"
        }
      ],
      "name": "multiTransferETH",
      "outputs": [],
      "stateMutability": "payable",
      "type": "function"
    },
    {
      "inputs": [
        {
          "internalType": "address",
          "name": "_token",
          "type": "address"
        },
        {
          "internalType": "address[]",
          "name": "_addresses",
          "type": "address[]"
        },
        {
          "internalType": "uint256[]",
          "name": "_amounts",
          "type": "uint256[]"
        }
      ],
      "name": "multiTransferToken",
      "outputs": [],
      "stateMutability": "nonpayable",
      "type": "function"
    },
    {
      "inputs": [
        {
          "internalType": "address",
          "name": "_to",
          "type": "address"
        }
      ],
      "name": "withdrawFromFailList",
      "outputs": [],
      "stateMutability": "nonpayable",
      "type": "function"
    }
  ],
  "transactionHash": "0xb904ede98a1d136ce46b7b023dd9f446ec92785d59291b314f37d06feff42445",
  "args": [],
  "numDeployments": 1,
  "solcInputHash": "32f5d78b17d47a05e0a7607637df74c9",
  "bytecode": "0x608060405234801561005d5760405162461bcd60e51b815260206004820152602260248201527f45746865722073656e7420746f206e6f6e2d70617961626c652066756e637469604482019081526137b760f11b6064830152608482fd5b50610beb8061006d6000396000f3fe60806040526004361061003f5760003560e01c806341ed24a2146100a457806377988cf814610113578063acacd8ee14610126578063ccb8c1e014610193575b60405162461bcd60e51b815260206004820152603560248201527f436f6e747261637420646f6573206e6f7420686176652066616c6c6261636b2060448201908152746e6f7220726563656976652066756e6374696f6e7360581b6064830152608482fd5b3480156100fd5760405162461bcd60e51b815260206004820152602260248201527f45746865722073656e7420746f206e6f6e2d70617961626c652066756e637469604482019081526137b760f11b6064830152608482fd5b5061011161010c36600461097d565b610212565b005b610111610121366004610a09565b6104ac565b34801561017f5760405162461bcd60e51b815260206004820152602260248201527f45746865722073656e7420746f206e6f6e2d70617961626c652066756e637469604482019081526137b760f11b6064830152608482fd5b5061011161018e366004610a7e565b610633565b3480156101ec5760405162461bcd60e51b815260206004820152602260248201527f45746865722073656e7420746f206e6f6e2d70617961626c652066756e637469604482019081526137b760f11b6064830152608482fd5b506102006101fb366004610aa5565b610734565b60405190815260200160405180910390f35b82811461023a5760405162461bcd60e51b815260040161023190610aed565b60405180910390fd5b8460006102478484610734565b604051636eb1769f60e11b815233600482015230602482015290915081906001600160a01b0384169063dd62ed3e9060440160206040518083038186803b1580156102e15760405162461bcd60e51b815260206004820152602560248201527f54617267657420636f6e747261637420646f6573206e6f7420636f6e7461696e604482019081526420636f646560d81b6064830152608482fd5b505afa1580156102f5573d6000803e3d6000fd5b505050506040513d601f19601f820116820180604052508101906103199190610b37565b116103665760405162461bcd60e51b815260206004820152601860248201527f4e65656420417070726f766520455243323020746f6b656e00000000000000006044820152606401610231565b60005b858110156104a257826001600160a01b03166323b872dd3389898581811061039357610393610b53565b90506020020160208101906103a89190610a7e565b8888868181106103ba576103ba610b53565b6040516001600160e01b031960e088901b1681526001600160a01b03958616600482015294909316602485015250602090910201356044820152606401602060405180830381600087803b1580156104615760405162461bcd60e51b815260206004820152602560248201527f54617267657420636f6e747261637420646f6573206e6f7420636f6e7461696e604482019081526420636f646560d81b6064830152608482fd5b505af1158015610475573d6000803e3d6000fd5b505050506040513d601f19601f820116820180604052508101906104999190610b69565b50600101610369565b5050505050505050565b8281146104cb5760405162461bcd60e51b815260040161023190610aed565b60006104d78383610734565b90508034146105205760405162461bcd60e51b81526020600482015260156024820152742a3930b739b332b91030b6b7bab73a1032b93937b960591b6044820152606401610231565b60005b8481101561062b57600086868381811061053f5761053f610b53565b90506020020160208101906105549190610a7e565b6001600160a01b031685858481811061056f5761056f610b53565b9050602002013560405160006040518083038185875af1925050503d80600081146105b6576040519150601f19603f3d011682016040523d82523d6000602084013e6105bb565b606091505b5050905080610622578484838181106105d6576105d6610b53565b905060200201356000808989868181106105f2576105f2610b53565b90506020020160208101906106079190610a7e565b6001600160a01b031681526020810191909152604001600020555b50600101610523565b505050505050565b33600090815260208190526040902054806106905760405162461bcd60e51b815260206004820152601a60248201527f596f7520617265206e6f7420696e206661696c6564206c6973740000000000006044820152606401610231565b33600090815260208190526040808220829055516001600160a01b0384169083908381818185875af1925050503d80600081146106e9576040519150601f19603f3d011682016040523d82523d6000602084013e6106ee565b606091505b505090508061072f5760405162461bcd60e51b815260206004820152600d60248201526c4661696c20776974686472617760981b6044820152606401610231565b505050565b6000805b8281101561076e5783838281811061075257610752610b53565b90506020020135826107649190610b8e565b9150600101610738565b5092915050565b60405162461bcd60e51b815260206004820152602260248201527f414249206465636f64696e673a207475706c65206461746120746f6f2073686f6044820152611c9d60f21b6064820152608481fd5b60405162461bcd60e51b815260206004820152602260248201527f414249206465636f64696e673a20696e76616c6964207475706c65206f666673604482015261195d60f21b6064820152608481fd5b6001600160a01b038116811461082a57600080fd5b50565b60405162461bcd60e51b815260206004820152602b60248201527f414249206465636f64696e673a20696e76616c69642063616c6c64617461206160448201526a727261792073747269646560a81b6064820152608481fd5b60008083601f8401126108ec5760405162461bcd60e51b815260206004820152602b60248201527f414249206465636f64696e673a20696e76616c69642063616c6c64617461206160448201526a1c9c985e481bd9999cd95d60aa1b6064820152608481fd5b50813567ffffffffffffffff8111156109585760405162461bcd60e51b815260206004820152602b60248201527f414249206465636f64696e673a20696e76616c69642063616c6c64617461206160448201526a0e4e4c2f240d8cadccee8d60ab1b6064820152608481fd5b6020830191508360208260051b85010111156109765761097661082d565b9250929050565b60008060008060006060868803121561099857610998610775565b85356109a381610815565b9450602086013567ffffffffffffffff808211156109c3576109c36107c5565b6109cf89838a01610886565b909650945060408801359150808211156109eb576109eb6107c5565b506109f888828901610886565b969995985093965092949392505050565b60008060008060408587031215610a2257610a22610775565b843567ffffffffffffffff80821115610a3d57610a3d6107c5565b610a4988838901610886565b90965094506020870135915080821115610a6557610a656107c5565b50610a7287828801610886565b95989497509550505050565b600060208284031215610a9357610a93610775565b8135610a9e81610815565b9392505050565b60008060208385031215610abb57610abb610775565b823567ffffffffffffffff811115610ad557610ad56107c5565b610ae185828601610886565b90969095509350505050565b6020808252602a908201527f4c656e67746873206f662041646472657373657320616e6420416d6f756e7473604082015269081393d508115455505360b21b606082015260800190565b600060208284031215610b4c57610b4c610775565b5051919050565b634e487b7160e01b600052603260045260246000fd5b600060208284031215610b7e57610b7e610775565b81518015158114610a9e57600080fd5b80820180821115610baf57634e487b7160e01b600052601160045260246000fd5b9291505056fea264697066735822122054061ffaf7a74f80cf31c8d666f0627287e32d974065b2e18912adaadc1c164d64736f6c63430008160033",
  "devdoc": {
    "kind": "dev",
    "methods": {
      "multiTransferToken(address,address[],uint256[])": {
        "params": {
          "_addresses": "空投地址数组",
          "_amounts": "代币数量数组（每个地址的空投数量）",
          "_token": "转账的ERC20代币地址"
        }
      }
    },
    "version": 1
  },
  "userdoc": {
    "kind": "user",
    "methods": {
      "multiTransferETH(address[],uint256[])": {
        "notice": "向多个地址转账ETH"
      },
      "multiTransferToken(address,address[],uint256[])": {
        "notice": "向多个地址转账ERC20代币，使用前需要先授权"
      }
    },
    "notice": "向多个地址转账ERC20代币",
    "version": 1
  },
  "storageLayout": {
    "storage": [
      {
        "astId": 4273,
        "contract": "contracts/Airdrop.sol:Airdrop",
        "label": "failTransferList",
        "offset": 0,
        "slot": "0",
        "type": "t_mapping(t_address,t_uint256)"
      }
    ],
    "types": {
      "t_address": {
        "encoding": "inplace",
        "label": "address",
        "numberOfBytes": "20"
      },
      "t_mapping(t_address,t_uint256)": {
        "encoding": "mapping",
        "key": "t_address",
        "label": "mapping(address => uint256)",
        "numberOfBytes": "32",
        "value": "t_uint256"
      },
      "t_uint256": {
        "encoding": "inplace",
        "label": "uint256",
        "numberOfBytes": "32"
      }
    }
  }
}