{
  "address": "0xbe0883F7226f575aBe5F48730f1BE6a7F6382EAd",
  "abi": [
    {
      "inputs": [
        {
          "internalType": "address",
          "name": "_dfTokenAddress",
          "type": "address"
        }
      ],
      "stateMutability": "nonpayable",
      "type": "constructor"
    },
    {
      "anonymous": false,
      "inputs": [
        {
          "indexed": false,
          "internalType": "address",
          "name": "nftAddress",
          "type": "address"
        },
        {
          "indexed": false,
          "internalType": "uint256",
          "name": "tokenId",
          "type": "uint256"
        }
      ],
      "name": "AuctionAlreadyCreated",
      "type": "event"
    },
    {
      "anonymous": false,
      "inputs": [
        {
          "indexed": true,
          "internalType": "address",
          "name": "nftAddress",
          "type": "address"
        },
        {
          "indexed": true,
          "internalType": "uint256",
          "name": "tokenId",
          "type": "uint256"
        }
      ],
      "name": "AuctionCreated",
      "type": "event"
    },
    {
      "anonymous": false,
      "inputs": [
        {
          "indexed": true,
          "internalType": "address",
          "name": "nftAddress",
          "type": "address"
        },
        {
          "indexed": true,
          "internalType": "uint256",
          "name": "tokenId",
          "type": "uint256"
        },
        {
          "indexed": false,
          "internalType": "address",
          "name": "winner",
          "type": "address"
        }
      ],
      "name": "AuctionEnded",
      "type": "event"
    },
    {
      "anonymous": false,
      "inputs": [
        {
          "indexed": false,
          "internalType": "address",
          "name": "nftAddress",
          "type": "address"
        },
        {
          "indexed": false,
          "internalType": "uint256",
          "name": "tokenId",
          "type": "uint256"
        }
      ],
      "name": "AuctionNotInProgress",
      "type": "event"
    },
    {
      "anonymous": false,
      "inputs": [
        {
          "indexed": false,
          "internalType": "uint256",
          "name": "startingPrice",
          "type": "uint256"
        },
        {
          "indexed": false,
          "internalType": "uint256",
          "name": "discountRate",
          "type": "uint256"
        },
        {
          "indexed": false,
          "internalType": "uint256",
          "name": "duration",
          "type": "uint256"
        }
      ],
      "name": "FloorPriceLessThanZero",
      "type": "event"
    },
    {
      "anonymous": false,
      "inputs": [
        {
          "indexed": false,
          "internalType": "address",
          "name": "nftAddress",
          "type": "address"
        },
        {
          "indexed": false,
          "internalType": "uint256",
          "name": "tokenId",
          "type": "uint256"
        },
        {
          "indexed": false,
          "internalType": "uint256",
          "name": "price",
          "type": "uint256"
        },
        {
          "indexed": false,
          "internalType": "uint256",
          "name": "paid",
          "type": "uint256"
        }
      ],
      "name": "InsufficientPayment",
      "type": "event"
    },
    {
      "anonymous": false,
      "inputs": [
        {
          "indexed": false,
          "internalType": "address",
          "name": "nftAddress",
          "type": "address"
        }
      ],
      "name": "InvalidAddress",
      "type": "event"
    },
    {
      "anonymous": false,
      "inputs": [
        {
          "indexed": false,
          "internalType": "address",
          "name": "nftAddress",
          "type": "address"
        },
        {
          "indexed": false,
          "internalType": "uint256",
          "name": "tokenId",
          "type": "uint256"
        },
        {
          "indexed": false,
          "internalType": "address",
          "name": "owner",
          "type": "address"
        }
      ],
      "name": "NotApproved",
      "type": "event"
    },
    {
      "anonymous": false,
      "inputs": [
        {
          "indexed": false,
          "internalType": "address",
          "name": "caller",
          "type": "address"
        },
        {
          "indexed": false,
          "internalType": "address",
          "name": "seller",
          "type": "address"
        }
      ],
      "name": "NotAuctionSeller",
      "type": "event"
    },
    {
      "anonymous": false,
      "inputs": [
        {
          "indexed": false,
          "internalType": "address",
          "name": "nftAddress",
          "type": "address"
        },
        {
          "indexed": false,
          "internalType": "uint256",
          "name": "tokenId",
          "type": "uint256"
        },
        {
          "indexed": false,
          "internalType": "address",
          "name": "seller",
          "type": "address"
        }
      ],
      "name": "NotOwner",
      "type": "event"
    },
    {
      "anonymous": false,
      "inputs": [
        {
          "indexed": false,
          "internalType": "address",
          "name": "seller",
          "type": "address"
        },
        {
          "indexed": false,
          "internalType": "uint256",
          "name": "amount",
          "type": "uint256"
        }
      ],
      "name": "PaymentFailed",
      "type": "event"
    },
    {
      "anonymous": false,
      "inputs": [
        {
          "indexed": false,
          "internalType": "address",
          "name": "buyer",
          "type": "address"
        },
        {
          "indexed": false,
          "internalType": "uint256",
          "name": "amount",
          "type": "uint256"
        }
      ],
      "name": "RefundFailed",
      "type": "event"
    },
    {
      "inputs": [
        {
          "internalType": "uint256",
          "name": "",
          "type": "uint256"
        }
      ],
      "name": "auctionRegistry",
      "outputs": [
        {
          "internalType": "address",
          "name": "nftAddress",
          "type": "address"
        },
        {
          "internalType": "uint256",
          "name": "tokenId",
          "type": "uint256"
        }
      ],
      "stateMutability": "view",
      "type": "function"
    },
    {
      "inputs": [
        {
          "internalType": "address",
          "name": "",
          "type": "address"
        },
        {
          "internalType": "uint256",
          "name": "",
          "type": "uint256"
        }
      ],
      "name": "auctions",
      "outputs": [
        {
          "internalType": "address",
          "name": "seller",
          "type": "address"
        },
        {
          "components": [
            {
              "internalType": "address",
              "name": "nftAddress",
              "type": "address"
            },
            {
              "internalType": "uint256",
              "name": "tokenId",
              "type": "uint256"
            },
            {
              "internalType": "string",
              "name": "tokenURI",
              "type": "string"
            }
          ],
          "internalType": "struct DutchAuction.NFTInfo",
          "name": "nftInfo",
          "type": "tuple"
        },
        {
          "internalType": "uint256",
          "name": "startingAt",
          "type": "uint256"
        },
        {
          "internalType": "uint256",
          "name": "endingAt",
          "type": "uint256"
        },
        {
          "internalType": "uint256",
          "name": "startingPrice",
          "type": "uint256"
        },
        {
          "internalType": "uint256",
          "name": "currentPrice",
          "type": "uint256"
        },
        {
          "internalType": "uint256",
          "name": "discountRate",
          "type": "uint256"
        },
        {
          "internalType": "enum DutchAuction.AuctionStatus",
          "name": "status",
          "type": "uint8"
        }
      ],
      "stateMutability": "view",
      "type": "function"
    },
    {
      "inputs": [
        {
          "internalType": "address",
          "name": "_nftAddress",
          "type": "address"
        },
        {
          "internalType": "uint256",
          "name": "_tokenId",
          "type": "uint256"
        }
      ],
      "name": "buyItem",
      "outputs": [],
      "stateMutability": "payable",
      "type": "function"
    },
    {
      "inputs": [
        {
          "internalType": "address",
          "name": "_nftAddress",
          "type": "address"
        },
        {
          "internalType": "uint256",
          "name": "_tokenId",
          "type": "uint256"
        }
      ],
      "name": "cancelAuction",
      "outputs": [],
      "stateMutability": "nonpayable",
      "type": "function"
    },
    {
      "inputs": [
        {
          "internalType": "address",
          "name": "_nftAddress",
          "type": "address"
        },
        {
          "internalType": "uint256",
          "name": "_tokenId",
          "type": "uint256"
        },
        {
          "internalType": "uint256",
          "name": "_startingPrice",
          "type": "uint256"
        },
        {
          "internalType": "uint256",
          "name": "_discountRate",
          "type": "uint256"
        }
      ],
      "name": "createAuction",
      "outputs": [],
      "stateMutability": "nonpayable",
      "type": "function"
    },
    {
      "inputs": [],
      "name": "dfToken",
      "outputs": [
        {
          "internalType": "contract IERC20",
          "name": "",
          "type": "address"
        }
      ],
      "stateMutability": "view",
      "type": "function"
    },
    {
      "inputs": [],
      "name": "getActiveAuctions",
      "outputs": [
        {
          "components": [
            {
              "internalType": "address",
              "name": "seller",
              "type": "address"
            },
            {
              "components": [
                {
                  "internalType": "address",
                  "name": "nftAddress",
                  "type": "address"
                },
                {
                  "internalType": "uint256",
                  "name": "tokenId",
                  "type": "uint256"
                },
                {
                  "internalType": "string",
                  "name": "tokenURI",
                  "type": "string"
                }
              ],
              "internalType": "struct DutchAuction.NFTInfo",
              "name": "nftInfo",
              "type": "tuple"
            },
            {
              "internalType": "uint256",
              "name": "startingAt",
              "type": "uint256"
            },
            {
              "internalType": "uint256",
              "name": "endingAt",
              "type": "uint256"
            },
            {
              "internalType": "uint256",
              "name": "startingPrice",
              "type": "uint256"
            },
            {
              "internalType": "uint256",
              "name": "currentPrice",
              "type": "uint256"
            },
            {
              "internalType": "uint256",
              "name": "discountRate",
              "type": "uint256"
            },
            {
              "internalType": "enum DutchAuction.AuctionStatus",
              "name": "status",
              "type": "uint8"
            }
          ],
          "internalType": "struct DutchAuction.Auction[]",
          "name": "",
          "type": "tuple[]"
        }
      ],
      "stateMutability": "view",
      "type": "function"
    },
    {
      "inputs": [],
      "name": "getAllAuctions",
      "outputs": [
        {
          "components": [
            {
              "internalType": "address",
              "name": "seller",
              "type": "address"
            },
            {
              "components": [
                {
                  "internalType": "address",
                  "name": "nftAddress",
                  "type": "address"
                },
                {
                  "internalType": "uint256",
                  "name": "tokenId",
                  "type": "uint256"
                },
                {
                  "internalType": "string",
                  "name": "tokenURI",
                  "type": "string"
                }
              ],
              "internalType": "struct DutchAuction.NFTInfo",
              "name": "nftInfo",
              "type": "tuple"
            },
            {
              "internalType": "uint256",
              "name": "startingAt",
              "type": "uint256"
            },
            {
              "internalType": "uint256",
              "name": "endingAt",
              "type": "uint256"
            },
            {
              "internalType": "uint256",
              "name": "startingPrice",
              "type": "uint256"
            },
            {
              "internalType": "uint256",
              "name": "currentPrice",
              "type": "uint256"
            },
            {
              "internalType": "uint256",
              "name": "discountRate",
              "type": "uint256"
            },
            {
              "internalType": "enum DutchAuction.AuctionStatus",
              "name": "status",
              "type": "uint8"
            }
          ],
          "internalType": "struct DutchAuction.Auction[]",
          "name": "",
          "type": "tuple[]"
        }
      ],
      "stateMutability": "view",
      "type": "function"
    },
    {
      "inputs": [
        {
          "internalType": "address",
          "name": "_nftAddress",
          "type": "address"
        },
        {
          "internalType": "uint256",
          "name": "_tokenId",
          "type": "uint256"
        }
      ],
      "name": "getAuction",
      "outputs": [
        {
          "components": [
            {
              "internalType": "address",
              "name": "seller",
              "type": "address"
            },
            {
              "components": [
                {
                  "internalType": "address",
                  "name": "nftAddress",
                  "type": "address"
                },
                {
                  "internalType": "uint256",
                  "name": "tokenId",
                  "type": "uint256"
                },
                {
                  "internalType": "string",
                  "name": "tokenURI",
                  "type": "string"
                }
              ],
              "internalType": "struct DutchAuction.NFTInfo",
              "name": "nftInfo",
              "type": "tuple"
            },
            {
              "internalType": "uint256",
              "name": "startingAt",
              "type": "uint256"
            },
            {
              "internalType": "uint256",
              "name": "endingAt",
              "type": "uint256"
            },
            {
              "internalType": "uint256",
              "name": "startingPrice",
              "type": "uint256"
            },
            {
              "internalType": "uint256",
              "name": "currentPrice",
              "type": "uint256"
            },
            {
              "internalType": "uint256",
              "name": "discountRate",
              "type": "uint256"
            },
            {
              "internalType": "enum DutchAuction.AuctionStatus",
              "name": "status",
              "type": "uint8"
            }
          ],
          "internalType": "struct DutchAuction.Auction",
          "name": "",
          "type": "tuple"
        }
      ],
      "stateMutability": "view",
      "type": "function"
    },
    {
      "inputs": [],
      "name": "getDuration",
      "outputs": [
        {
          "internalType": "uint256",
          "name": "",
          "type": "uint256"
        }
      ],
      "stateMutability": "pure",
      "type": "function"
    },
    {
      "inputs": [
        {
          "internalType": "address",
          "name": "_nftAddress",
          "type": "address"
        },
        {
          "internalType": "uint256",
          "name": "_tokenId",
          "type": "uint256"
        }
      ],
      "name": "getPrice",
      "outputs": [
        {
          "internalType": "uint256",
          "name": "",
          "type": "uint256"
        }
      ],
      "stateMutability": "view",
      "type": "function"
    }
  ],
  "transactionHash": "0x454aecadb0b6c6005bb0cd41060c337f4d4e76af6f1838a1e6e7109d5f947df8",
  "args": [
    "0xAAbd2411F9E51D32E2EeA0a2cB55361CEF6af6fB"
  ],
  "numDeployments": 1,
  "solcInputHash": "0611cdda5fe6caddb819804f0920a32a",
  "bytecode": "0x60a06040523480156200005e5760405162461bcd60e51b815260206004820152602260248201527f45746865722073656e7420746f206e6f6e2d70617961626c652066756e637469604482019081526137b760f11b6064830152608482fd5b5060405162002a2238038062002a228339810160408190526200008191620000e0565b6001600160a01b038116620000ce5760405162461bcd60e51b815260206004820152600f60248201526e496e76616c6964206164647265737360881b604482015260640160405180910390fd5b6001600160a01b03166080526200015d565b6000602082840312156200013e5760405162461bcd60e51b815260206004820152602260248201527f414249206465636f64696e673a207475706c65206461746120746f6f2073686f6044820152611c9d60f21b6064820152608481fd5b81516001600160a01b03811681146200015657600080fd5b9392505050565b6080516128a96200017960003960006101cd01526128a96000f3fe60806040526004361061009c5760003560e01c8063762a66a211610064578063762a66a21461033c578063859b97fe146103a45780639f37092a146103ff578063ad2e8c9b14610412578063cbd2bdfd14610463578063cf44b5d5146104c05761009c565b80632ffee7a6146101015780633a25a1a614610180578063449e815d1461020757806344f91c1e1461027057806361beb1d7146102df575b60405162461bcd60e51b815260206004820152603560248201527f436f6e747261637420646f6573206e6f7420686176652066616c6c6261636b2060448201908152746e6f7220726563656976652066756e6374696f6e7360581b6064830152608482fd5b3480156101485760405162461bcd60e51b81526020600482015260226024820152600080516020612834833981519152604482019081526137b760f11b6064830152608482fd5b5061015c6101573660046121cd565b610510565b604080516001600160a01b0390931683526020830191909152015b60405180910390f35b3480156101c75760405162461bcd60e51b81526020600482015260226024820152600080516020612834833981519152604482019081526137b760f11b6064830152608482fd5b506101ef7f000000000000000000000000000000000000000000000000000000000000000081565b6040516001600160a01b039091168152602001610177565b34801561024e5760405162461bcd60e51b81526020600482015260226024820152600080516020612834833981519152604482019081526137b760f11b6064830152608482fd5b5061026261025d366004612201565b610548565b604051908152602001610177565b3480156102b75760405162461bcd60e51b81526020600482015260226024820152600080516020612834833981519152604482019081526137b760f11b6064830152608482fd5b506102cb6102c6366004612201565b6106e9565b6040516101779897969594939291906122de565b3480156103265760405162461bcd60e51b81526020600482015260226024820152600080516020612834833981519152604482019081526137b760f11b6064830152608482fd5b5061033a61033536600461233e565b6107fb565b005b3480156103835760405162461bcd60e51b81526020600482015260226024820152600080516020612834833981519152604482019081526137b760f11b6064830152608482fd5b50610397610392366004612201565b610cff565b60405161017791906123f3565b3480156103eb5760405162461bcd60e51b81526020600482015260226024820152600080516020612834833981519152604482019081526137b760f11b6064830152608482fd5b5061033a6103fa366004612201565b610e64565b61033a61040d366004612201565b611159565b3480156104595760405162461bcd60e51b81526020600482015260226024820152600080516020612834833981519152604482019081526137b760f11b6064830152608482fd5b5062093a80610262565b3480156104aa5760405162461bcd60e51b81526020600482015260226024820152600080516020612834833981519152604482019081526137b760f11b6064830152608482fd5b506104b3611682565b604051610177919061240d565b3480156105075760405162461bcd60e51b81526020600482015260226024820152600080516020612834833981519152604482019081526137b760f11b6064830152608482fd5b506104b36118ad565b6001818154811061052057600080fd5b6000918252602090912060029091020180546001909101546001600160a01b03909116915082565b6001600160a01b0380831660009081526020818152604080832085845282528083208151610100810183528154861681528251606081018452600183018054909716815260028301548186015260038301805496978897939694959487019492939092840191906105b890612471565b80601f01602080910402602001604051908101604052809291908181526020018280546105e490612471565b80156106315780601f1061060657610100808354040283529160200191610631565b820191906000526020600020905b81548152906001019060200180831161061457829003601f168201915b50505091909252505050815260048201546020820152600582015460408201526006820154606082015260078201546080820152600882015460a0820152600982015460c09091019060ff16600281111561068e5761068e6122a6565b600281111561069f5761069f6122a6565b81525050905060008160400151426106b791906124bb565b90506000818360c001516106cb91906124ce565b90508083608001516106dd91906124bb565b93505050505b92915050565b6000602081815292815260408082208452918152819020805482516060810184526001830180546001600160a01b0390811683526002850154968301969096526003840180549690931695939491939092918401919061074890612471565b80601f016020809104026020016040519081016040528092919081815260200182805461077490612471565b80156107c15780601f10610796576101008083540402835291602001916107c1565b820191906000526020600020905b8154815290600101906020018083116107a457829003601f168201915b5050509190925250505060048201546005830154600684015460078501546008860154600990960154949593949293919290919060ff1688565b6001600160a01b038416610884576040516001600160a01b03851681527f8e4c8aa64faa2ab4276a2c6878068416c0eae6ead59e25aa3c28d438ef21fae39060200160405180910390a160405162461bcd60e51b815260206004820152600f60248201526e496e76616c6964206164647265737360881b60448201526064015b60405180910390fd5b6040516331a9108f60e11b81526004810184905233906001600160a01b03861690636352211e9060240160206040518083038186803b1580156109045760405162461bcd60e51b81526020600482015260256024820152600080516020612854833981519152604482019081526420636f646560d81b6064830152608482fd5b505afa158015610918573d6000803e3d6000fd5b505050506040513d601f19601f8201168201806040525081019061093c91906124e5565b6001600160a01b0316146109cd57604080516001600160a01b038616815260208101859052338183015290517f81fe68e6ca724b6dcb0be2868d1c6c6aaf5d494e7eabd3a652a00a080deb8a679181900360600190a160405162461bcd60e51b815260206004820152601060248201526f139bdd081bdddb995c881bd98813919560821b604482015260640161087b565b60405163020604bf60e21b81526004810184905230906001600160a01b0386169063081812fc9060240160206040518083038186803b158015610a4d5760405162461bcd60e51b81526020600482015260256024820152600080516020612854833981519152604482019081526420636f646560d81b6064830152608482fd5b505afa158015610a61573d6000803e3d6000fd5b505050506040513d601f19601f82011682018060405250810190610a8591906124e5565b6001600160a01b031614158015610b54575060405163e985e9c560e01b81523360048201523060248201526001600160a01b0385169063e985e9c59060440160206040518083038186803b158015610b1a5760405162461bcd60e51b81526020600482015260256024820152600080516020612854833981519152604482019081526420636f646560d81b6064830152608482fd5b505afa158015610b2e573d6000803e3d6000fd5b505050506040513d601f19601f82011682018060405250810190610b529190612505565b155b15610be057604080516001600160a01b038616815260208101859052338183015290517f652075459eca3ad4bfee9f962d31263c9a26782fe6b6ef37d435b9906c6febb09181900360600190a160405162461bcd60e51b8152602060048201526014602482015273139bdd08185c1c1c9bdd995908199bdc8813919560621b604482015260640161087b565b610bed62093a80826124ce565b821015610c7e57604080518381526020810183905262093a808183015290517faa0869f68785500aaef6abb9258ca1b102f3e88c80d309bfffd6d73b66b11f369181900360600190a160405162461bcd60e51b815260206004820152601a60248201527f466c6f6f72207072696365206c657373207468616e207a65726f000000000000604482015260640161087b565b6001600160a01b03841660009081526020818152604080832086845290915290206002600982015460ff166002811115610cba57610cba6122a6565b03610cec576001600160a01b0385166000908152602081815260408083208784529091529020600901805460ff191690555b610cf885858585611bbc565b5050505050565b610d076120f4565b6001600160a01b0380841660009081526020818152604080832086845282529182902082516101008101845281548516815283516060810185526001830180549096168152600283015481850152600383018054929693959487019491939291840191610d7390612471565b80601f0160208091040260200160405190810160405280929190818152602001828054610d9f90612471565b8015610dec5780601f10610dc157610100808354040283529160200191610dec565b820191906000526020600020905b815481529060010190602001808311610dcf57829003601f168201915b50505091909252505050815260048201546020820152600582015460408201526006820154606082015260078201546080820152600882015460a0820152600982015460c09091019060ff166002811115610e4957610e496122a6565b6002811115610e5a57610e5a6122a6565b9052509392505050565b6001600160a01b038083166000908152602081815260408083208584528252808320815161010081018352815486168152825160608101845260018301805490971681526002830154818601526003830180548a988a9897949694870194909290840191610ed190612471565b80601f0160208091040260200160405190810160405280929190818152602001828054610efd90612471565b8015610f4a5780601f10610f1f57610100808354040283529160200191610f4a565b820191906000526020600020905b815481529060010190602001808311610f2d57829003601f168201915b50505091909252505050815260048201546020820152600582015460408201526006820154606082015260078201546080820152600882015460a0820152600982015460c09091019060ff166002811115610fa757610fa76122a6565b6002811115610fb857610fb86122a6565b905250905060018160e001516002811115610fd557610fd56122a6565b1461106557604080516001600160a01b0385168152602081018490527f7d422f848c6aacd8773b250d3e1808c071f738f51b3bd78a202014a20a63068d91015b60405180910390a160405162461bcd60e51b815260206004820152601760248201527f41756374696f6e206e6f7420696e2070726f6772657373000000000000000000604482015260640161087b565b60006110718686610cff565b80519091506001600160a01b03163314611106578051604080513381526001600160a01b0390921660208301527fb71af04b7dc179d20549fd8af8dcf7ba1ce722797da93cebb92f4d8b02fdc9b6910160405180910390a160405162461bcd60e51b81526020600482015260126024820152712737ba1030bab1ba34b7b71039b2b63632b960711b604482015260640161087b565b61111086866120c2565b6040516000815285906001600160a01b038816907fe0c4b41d54d853b2b6f60078a33a889662b42592856bcd4e749b2f0927a9ac089060200160405180910390a3505050505050565b6001600160a01b038083166000908152602081815260408083208584528252808320815161010081018352815486168152825160608101845260018301805490971681526002830154818601526003830180548a988a98979496948701949092908401916111c690612471565b80601f01602080910402602001604051908101604052809291908181526020018280546111f290612471565b801561123f5780601f106112145761010080835404028352916020019161123f565b820191906000526020600020905b81548152906001019060200180831161122257829003601f168201915b50505091909252505050815260048201546020820152600582015460408201526006820154606082015260078201546080820152600882015460a0820152600982015460c09091019060ff16600281111561129c5761129c6122a6565b60028111156112ad576112ad6122a6565b905250905060018160e0015160028111156112ca576112ca6122a6565b1461130e57604080516001600160a01b0385168152602081018490527f7d422f848c6aacd8773b250d3e1808c071f738f51b3bd78a202014a20a63068d9101611015565b600061131a8686610cff565b905060006113288787610548565b9050803410156113c157604080516001600160a01b0389168152602081018890529081018290523460608201527fd19865bc9d1d08d14114c1ade3ae9db2e1ada7fc72c71afa74f7129a2a30ea089060800160405180910390a160405162461bcd60e51b8152602060048201526014602482015273125b9cdd59999a58da595b9d081c185e5b595b9d60621b604482015260640161087b565b348110156114a8576000336113d683346124bb565b604051600081818185875af1925050503d8060008114611412576040519150601f19603f3d011682016040523d82523d6000602084013e611417565b606091505b50509050806114a6577faf73b0b217208b61be286bbc37095bce7eb8b9ccf617244c2f0f154e8e04e3ff3361144c84346124bb565b604080516001600160a01b03909316835260208301919091520160405180910390a160405162461bcd60e51b815260206004820152600d60248201526c1499599d5b990819985a5b1959609a1b604482015260640161087b565b505b8151604051632142170760e11b81526001600160a01b03918216600482015233602482015260448101889052908816906342842e0e90606401600060405180830381600087803b1580156115395760405162461bcd60e51b81526020600482015260256024820152600080516020612854833981519152604482019081526420636f646560d81b6064830152608482fd5b505af115801561154d573d6000803e3d6000fd5b50505050600082600001516001600160a01b03168260405160006040518083038185875af1925050503d80600081146115a2576040519150601f19603f3d011682016040523d82523d6000602084013e6115a7565b606091505b505090508061162e578251604080516001600160a01b039092168252602082018490527fa09e6165f4dcdc4e418edf5d4543c54cdb7d7a2166ff3723d856102f4f4a3c4d910160405180910390a160405162461bcd60e51b815260206004820152600e60248201526d14185e5b595b9d0819985a5b195960921b604482015260640161087b565b61163888886120c2565b60405133815287906001600160a01b038a16907fe0c4b41d54d853b2b6f60078a33a889662b42592856bcd4e749b2f0927a9ac089060200160405180910390a35050505050505050565b60015460609060009067ffffffffffffffff8111156116a3576116a361252a565b6040519080825280602002602001820160405280156116dc57816020015b6116c96120f4565b8152602001906001900390816116c15790505b50905060005b6001548110156118a75760006001828154811061170157611701612540565b60009182526020808320604080518082018252600294850290920180546001600160a01b039081168085526001928301548587019081529088528786528388209051885285529582902082516101008101845281548816815283516060810185529282018054909816835295810154828601526003810180549498509596909594870194919390928401919061179690612471565b80601f01602080910402602001604051908101604052809291908181526020018280546117c290612471565b801561180f5780601f106117e45761010080835404028352916020019161180f565b820191906000526020600020905b8154815290600101906020018083116117f257829003601f168201915b50505091909252505050815260048201546020820152600582015460408201526006820154606082015260078201546080820152600882015460a0820152600982015460c09091019060ff16600281111561186c5761186c6122a6565b600281111561187d5761187d6122a6565b8152505083838151811061189357611893612540565b6020908102919091010152506001016116e2565b50919050565b60606000805b600154811015611951576000600182815481106118d2576118d2612540565b60009182526020808320604080518082018252600294850290920180546001600160a01b031680845260019182015484860190815290875286855282872090518752909352909320600901549293509160ff1690811115611935576119356122a6565b03611948578261194481612556565b9350505b506001016118b3565b5060008167ffffffffffffffff81111561196d5761196d61252a565b6040519080825280602002602001820160405280156119a657816020015b6119936120f4565b81526020019060019003908161198b5790505b5090506000805b600154811080156119bd57508382105b15611bb3576000600182815481106119d7576119d7612540565b60009182526020808320604080518082018252600294850290920180546001600160a01b03908116808552600192830154858701908152908852878652838820905188528552828720835161010081018552815483168152845160608101865293820180549093168452968101548387015260038101805495995090958701949293919291840191611a6890612471565b80601f0160208091040260200160405190810160405280929190818152602001828054611a9490612471565b8015611ae15780601f10611ab657610100808354040283529160200191611ae1565b820191906000526020600020905b815481529060010190602001808311611ac457829003601f168201915b50505091909252505050815260048201546020820152600582015460408201526006820154606082015260078201546080820152600882015460a0820152600982015460c09091019060ff166002811115611b3e57611b3e6122a6565b6002811115611b4f57611b4f6122a6565b905250905060018160e001516002811115611b6c57611b6c6122a6565b03611b9e5780858581518110611b8457611b84612540565b60200260200101819052508380611b9a90612556565b9450505b50508080611bab90612556565b9150506119ad565b50909392505050565b6001600160a01b038085166000908152602081815260408083208784528252808320815161010081018352815486168152825160608101845260018301805490971681526002830154818601526003830180548c988c9897949694870194909290840191611c2990612471565b80601f0160208091040260200160405190810160405280929190818152602001828054611c5590612471565b8015611ca25780601f10611c7757610100808354040283529160200191611ca2565b820191906000526020600020905b815481529060010190602001808311611c8557829003601f168201915b50505091909252505050815260048201546020820152600582015460408201526006820154606082015260078201546080820152600882015460a0820152600982015460c09091019060ff166002811115611cff57611cff6122a6565b6002811115611d1057611d106122a6565b905250905060008160e001516002811115611d2d57611d2d6122a6565b14611dbc57604080516001600160a01b0385168152602081018490527f87898c862e29e060d11dfc7a9e9f20ff211b7148c2e28ede7f79235ba00eaeba910160405180910390a160405162461bcd60e51b815260206004820152601760248201527f41756374696f6e20616c72656164792063726561746564000000000000000000604482015260640161087b565b60405163c87b56dd60e01b8152600481018790526000906001600160a01b0389169063c87b56dd9060240160006040518083038186803b158015611e3d5760405162461bcd60e51b81526020600482015260256024820152600080516020612854833981519152604482019081526420636f646560d81b6064830152608482fd5b505afa158015611e51573d6000803e3d6000fd5b505050506040513d6000823e601f3d908101601f19168201604052611e79919081019061256f565b9050336000808a6001600160a01b03166001600160a01b03168152602001908152602001600020600089815260200190815260200160002060000160006101000a8154816001600160a01b0302191690836001600160a01b031602179055506040518060600160405280896001600160a01b03168152602001888152602001828152506000808a6001600160a01b03166001600160a01b03168152602001908152602001600020600089815260200190815260200160002060010160008201518160000160006101000a8154816001600160a01b0302191690836001600160a01b03160217905550602082015181600101556040820151816002019081611f809190612760565b5050506001600160a01b0388166000908152602081815260408083208a84529091529020426004909101819055611fbb9062093a8090612820565b6001600160a01b038981166000818152602081815260408083208d845282528083206005810196909655600686018c9055600786018c9055600886018b905560099095018054600160ff199091168117909155855180870187528481529182018d81528154808301835591845291517fb10e2d527612073b26eecdfd717e6a320cf44b4afac2b0732d9fcbe2b7fa0cf6600290920291820180546001600160a01b0319169190961617909455517fb10e2d527612073b26eecdfd717e6a320cf44b4afac2b0732d9fcbe2b7fa0cf79093019290925591518992917f3249a06bd478adf780bb7930214ad005e9cfa517d63221c0b77f27199d1a58b391a35050505050505050565b6001600160a01b039190911660009081526020818152604080832093835292905220600901805460ff19166002179055565b60405180610100016040528060006001600160a01b0316815260200161213d604051806060016040528060006001600160a01b0316815260200160008152602001606081525090565b8152602001600081526020016000815260200160008152602001600081526020016000815260200160006002811115612178576121786122a6565b905290565b60405162461bcd60e51b815260206004820152602260248201527f414249206465636f64696e673a207475706c65206461746120746f6f2073686f6044820152611c9d60f21b6064820152608481fd5b6000602082840312156121e2576121e261217d565b5035919050565b6001600160a01b03811681146121fe57600080fd5b50565b600080604083850312156122175761221761217d565b8235612222816121e9565b946020939093013593505050565b60005b8381101561224b578181015183820152602001612233565b50506000910152565b60018060a01b0381511682526020810151602083015260006040820151606060408501528051806060860152612291816080870160208501612230565b601f01601f1916939093016080019392505050565b634e487b7160e01b600052602160045260246000fd5b600381106122da57634e487b7160e01b600052602160045260246000fd5b9052565b6001600160a01b0389168152610100602082018190526000906123038382018b612254565b9150508760408301528660608301528560808301528460a08301528360c083015261233160e08301846122bc565b9998505050505050505050565b600080600080608085870312156123575761235761217d565b8435612362816121e9565b966020860135965060408601359560600135945092505050565b600061010060018060a01b03835116845260208301518160208601526123a482860182612254565b91505060408301516040850152606083015160608501526080830151608085015260a083015160a085015260c083015160c085015260e08301516123eb60e08601826122bc565b509392505050565b602081526000612406602083018461237c565b9392505050565b600060208083016020845280855180835260408601915060408160051b87010192506020870160005b8281101561246457603f1988860301845261245285835161237c565b94509285019290850190600101612436565b5092979650505050505050565b600181811c9082168061248557607f821691505b6020821081036118a757634e487b7160e01b600052602260045260246000fd5b634e487b7160e01b600052601160045260246000fd5b818103818111156106e3576106e36124a5565b80820281158282048414176106e3576106e36124a5565b6000602082840312156124fa576124fa61217d565b8151612406816121e9565b60006020828403121561251a5761251a61217d565b8151801515811461240657600080fd5b634e487b7160e01b600052604160045260246000fd5b634e487b7160e01b600052603260045260246000fd5b600060018201612568576125686124a5565b5060010190565b600060208083850312156125855761258561217d565b825167ffffffffffffffff808211156125e85760405162461bcd60e51b815260048101849052602260248201527f414249206465636f64696e673a20696e76616c6964207475706c65206f666673604482015261195d60f21b6064820152608481fd5b818501915085601f8301126126505760405162461bcd60e51b815260048101849052602b60248201527f414249206465636f64696e673a20696e76616c69642063616c6c64617461206160448201526a1c9c985e481bd9999cd95d60aa1b6064820152608481fd5b8151818111156126625761266261252a565b604051601f8201601f19908116603f0116810190838211818310171561268a5761268a61252a565b8160405282815288868487010111156126f45760405162461bcd60e51b815260048101879052602760248201527f414249206465636f64696e673a20696e76616c69642062797465206172726179604482015266040d8cadccee8d60cb1b60648201529350608484fd5b61270383878301888801612230565b98975050505050505050565b601f82111561275b576000816000526020600020601f850160051c810160208610156127385750805b601f850160051c820191505b8181101561275757828155600101612744565b5050505b505050565b815167ffffffffffffffff81111561277a5761277a61252a565b61278e816127888454612471565b8461270f565b602080601f8311600181146127c357600084156127ab5750858301515b600019600386901b1c1916600185901b178555612757565b600085815260208120601f198616915b828110156127f2578886015182559484019460019091019084016127d3565b50858210156128105787850151600019600388901b60f8161c191681555b5050505050600190811b01905550565b808201808211156106e3576106e36124a556fe45746865722073656e7420746f206e6f6e2d70617961626c652066756e63746954617267657420636f6e747261637420646f6573206e6f7420636f6e7461696ea2646970667358221220ff6e3511d8b392ce0119db160ed9774aa1c177f5804ce35af7a5e6d041a92ac864736f6c63430008160033",
  "devdoc": {
    "kind": "dev",
    "methods": {},
    "version": 1
  },
  "userdoc": {
    "kind": "user",
    "methods": {
      "auctions(address,uint256)": {
        "notice": "NFT address -> tokenId -> Auction Object"
      },
      "createAuction(address,uint256,uint256,uint256)": {
        "notice": "Create new auction for a given NFT item"
      },
      "getActiveAuctions()": {
        "notice": "Get all active auctions"
      },
      "getAllAuctions()": {
        "notice": "Get all auctions"
      }
    },
    "version": 1
  },
  "storageLayout": {
    "storage": [
      {
        "astId": 3235,
        "contract": "contracts/DutchAuction.sol:DutchAuction",
        "label": "auctions",
        "offset": 0,
        "slot": "0",
        "type": "t_mapping(t_address,t_mapping(t_uint256,t_struct(Auction)3219_storage))"
      },
      {
        "astId": 3239,
        "contract": "contracts/DutchAuction.sol:DutchAuction",
        "label": "auctionRegistry",
        "offset": 0,
        "slot": "1",
        "type": "t_array(t_struct(AuctionInfo)3224_storage)dyn_storage"
      }
    ],
    "types": {
      "t_address": {
        "encoding": "inplace",
        "label": "address",
        "numberOfBytes": "20"
      },
      "t_array(t_struct(AuctionInfo)3224_storage)dyn_storage": {
        "base": "t_struct(AuctionInfo)3224_storage",
        "encoding": "dynamic_array",
        "label": "struct DutchAuction.AuctionInfo[]",
        "numberOfBytes": "32"
      },
      "t_enum(AuctionStatus)3244": {
        "encoding": "inplace",
        "label": "enum DutchAuction.AuctionStatus",
        "numberOfBytes": "1"
      },
      "t_mapping(t_address,t_mapping(t_uint256,t_struct(Auction)3219_storage))": {
        "encoding": "mapping",
        "key": "t_address",
        "label": "mapping(address => mapping(uint256 => struct DutchAuction.Auction))",
        "numberOfBytes": "32",
        "value": "t_mapping(t_uint256,t_struct(Auction)3219_storage)"
      },
      "t_mapping(t_uint256,t_struct(Auction)3219_storage)": {
        "encoding": "mapping",
        "key": "t_uint256",
        "label": "mapping(uint256 => struct DutchAuction.Auction)",
        "numberOfBytes": "32",
        "value": "t_struct(Auction)3219_storage"
      },
      "t_string_storage": {
        "encoding": "bytes",
        "label": "string",
        "numberOfBytes": "32"
      },
      "t_struct(Auction)3219_storage": {
        "encoding": "inplace",
        "label": "struct DutchAuction.Auction",
        "members": [
          {
            "astId": 3202,
            "contract": "contracts/DutchAuction.sol:DutchAuction",
            "label": "seller",
            "offset": 0,
            "slot": "0",
            "type": "t_address"
          },
          {
            "astId": 3205,
            "contract": "contracts/DutchAuction.sol:DutchAuction",
            "label": "nftInfo",
            "offset": 0,
            "slot": "1",
            "type": "t_struct(NFTInfo)3199_storage"
          },
          {
            "astId": 3207,
            "contract": "contracts/DutchAuction.sol:DutchAuction",
            "label": "startingAt",
            "offset": 0,
            "slot": "4",
            "type": "t_uint256"
          },
          {
            "astId": 3209,
            "contract": "contracts/DutchAuction.sol:DutchAuction",
            "label": "endingAt",
            "offset": 0,
            "slot": "5",
            "type": "t_uint256"
          },
          {
            "astId": 3211,
            "contract": "contracts/DutchAuction.sol:DutchAuction",
            "label": "startingPrice",
            "offset": 0,
            "slot": "6",
            "type": "t_uint256"
          },
          {
            "astId": 3213,
            "contract": "contracts/DutchAuction.sol:DutchAuction",
            "label": "currentPrice",
            "offset": 0,
            "slot": "7",
            "type": "t_uint256"
          },
          {
            "astId": 3215,
            "contract": "contracts/DutchAuction.sol:DutchAuction",
            "label": "discountRate",
            "offset": 0,
            "slot": "8",
            "type": "t_uint256"
          },
          {
            "astId": 3218,
            "contract": "contracts/DutchAuction.sol:DutchAuction",
            "label": "status",
            "offset": 0,
            "slot": "9",
            "type": "t_enum(AuctionStatus)3244"
          }
        ],
        "numberOfBytes": "320"
      },
      "t_struct(AuctionInfo)3224_storage": {
        "encoding": "inplace",
        "label": "struct DutchAuction.AuctionInfo",
        "members": [
          {
            "astId": 3221,
            "contract": "contracts/DutchAuction.sol:DutchAuction",
            "label": "nftAddress",
            "offset": 0,
            "slot": "0",
            "type": "t_address"
          },
          {
            "astId": 3223,
            "contract": "contracts/DutchAuction.sol:DutchAuction",
            "label": "tokenId",
            "offset": 0,
            "slot": "1",
            "type": "t_uint256"
          }
        ],
        "numberOfBytes": "64"
      },
      "t_struct(NFTInfo)3199_storage": {
        "encoding": "inplace",
        "label": "struct DutchAuction.NFTInfo",
        "members": [
          {
            "astId": 3194,
            "contract": "contracts/DutchAuction.sol:DutchAuction",
            "label": "nftAddress",
            "offset": 0,
            "slot": "0",
            "type": "t_address"
          },
          {
            "astId": 3196,
            "contract": "contracts/DutchAuction.sol:DutchAuction",
            "label": "tokenId",
            "offset": 0,
            "slot": "1",
            "type": "t_uint256"
          },
          {
            "astId": 3198,
            "contract": "contracts/DutchAuction.sol:DutchAuction",
            "label": "tokenURI",
            "offset": 0,
            "slot": "2",
            "type": "t_string_storage"
          }
        ],
        "numberOfBytes": "96"
      },
      "t_uint256": {
        "encoding": "inplace",
        "label": "uint256",
        "numberOfBytes": "32"
      }
    }
  }
}