{
  "address": "0x485BFc468EDfF17eC7a302F26334ae7a5fB13D3b",
  "abi": [
    {
      "inputs": [
        {
          "internalType": "address",
          "name": "_dfTokenAddress",
          "type": "address"
        }
      ],
      "stateMutability": "nonpayable",
      "type": "constructor"
    },
    {
      "anonymous": false,
      "inputs": [
        {
          "indexed": true,
          "internalType": "address",
          "name": "nftAddress",
          "type": "address"
        },
        {
          "indexed": true,
          "internalType": "uint256",
          "name": "tokenId",
          "type": "uint256"
        }
      ],
      "name": "AuctionCreated",
      "type": "event"
    },
    {
      "anonymous": false,
      "inputs": [
        {
          "indexed": true,
          "internalType": "address",
          "name": "nftAddress",
          "type": "address"
        },
        {
          "indexed": true,
          "internalType": "uint256",
          "name": "tokenId",
          "type": "uint256"
        },
        {
          "indexed": false,
          "internalType": "address",
          "name": "winner",
          "type": "address"
        }
      ],
      "name": "AuctionEnded",
      "type": "event"
    },
    {
      "anonymous": false,
      "inputs": [
        {
          "indexed": true,
          "internalType": "address",
          "name": "nftAddress",
          "type": "address"
        },
        {
          "indexed": true,
          "internalType": "uint256",
          "name": "tokenId",
          "type": "uint256"
        },
        {
          "indexed": false,
          "internalType": "uint256",
          "name": "price",
          "type": "uint256"
        }
      ],
      "name": "NewBid",
      "type": "event"
    },
    {
      "inputs": [
        {
          "internalType": "uint256",
          "name": "",
          "type": "uint256"
        }
      ],
      "name": "auctionRegistry",
      "outputs": [
        {
          "internalType": "address",
          "name": "nftAddress",
          "type": "address"
        },
        {
          "internalType": "uint256",
          "name": "tokenId",
          "type": "uint256"
        }
      ],
      "stateMutability": "view",
      "type": "function"
    },
    {
      "inputs": [
        {
          "internalType": "address",
          "name": "",
          "type": "address"
        },
        {
          "internalType": "uint256",
          "name": "",
          "type": "uint256"
        }
      ],
      "name": "auctions",
      "outputs": [
        {
          "internalType": "address",
          "name": "seller",
          "type": "address"
        },
        {
          "components": [
            {
              "internalType": "address",
              "name": "nftAddress",
              "type": "address"
            },
            {
              "internalType": "uint256",
              "name": "tokenId",
              "type": "uint256"
            },
            {
              "internalType": "string",
              "name": "tokenURI",
              "type": "string"
            }
          ],
          "internalType": "struct EnglishAuction.NFTInfo",
          "name": "nftInfo",
          "type": "tuple"
        },
        {
          "internalType": "uint256",
          "name": "startingAt",
          "type": "uint256"
        },
        {
          "internalType": "uint256",
          "name": "endingAt",
          "type": "uint256"
        },
        {
          "internalType": "uint256",
          "name": "startingPrice",
          "type": "uint256"
        },
        {
          "internalType": "uint256",
          "name": "highestBid",
          "type": "uint256"
        },
        {
          "internalType": "address",
          "name": "highestBidder",
          "type": "address"
        },
        {
          "internalType": "enum EnglishAuction.AuctionStatus",
          "name": "status",
          "type": "uint8"
        }
      ],
      "stateMutability": "view",
      "type": "function"
    },
    {
      "inputs": [
        {
          "internalType": "address",
          "name": "_nftAddress",
          "type": "address"
        },
        {
          "internalType": "uint256",
          "name": "_tokenId",
          "type": "uint256"
        },
        {
          "internalType": "uint256",
          "name": "_bidAmount",
          "type": "uint256"
        }
      ],
      "name": "bid",
      "outputs": [],
      "stateMutability": "payable",
      "type": "function"
    },
    {
      "inputs": [
        {
          "internalType": "address",
          "name": "_nftAddress",
          "type": "address"
        },
        {
          "internalType": "uint256",
          "name": "_tokenId",
          "type": "uint256"
        },
        {
          "internalType": "uint256",
          "name": "_startingPrice",
          "type": "uint256"
        },
        {
          "internalType": "uint256",
          "name": "_duration",
          "type": "uint256"
        }
      ],
      "name": "createAuction",
      "outputs": [],
      "stateMutability": "nonpayable",
      "type": "function"
    },
    {
      "inputs": [],
      "name": "dfToken",
      "outputs": [
        {
          "internalType": "contract IERC20",
          "name": "",
          "type": "address"
        }
      ],
      "stateMutability": "view",
      "type": "function"
    },
    {
      "inputs": [
        {
          "internalType": "address",
          "name": "_nftAddress",
          "type": "address"
        },
        {
          "internalType": "uint256",
          "name": "_tokenId",
          "type": "uint256"
        }
      ],
      "name": "endAuction",
      "outputs": [],
      "stateMutability": "nonpayable",
      "type": "function"
    },
    {
      "inputs": [],
      "name": "getActiveAuctions",
      "outputs": [
        {
          "components": [
            {
              "internalType": "address",
              "name": "seller",
              "type": "address"
            },
            {
              "components": [
                {
                  "internalType": "address",
                  "name": "nftAddress",
                  "type": "address"
                },
                {
                  "internalType": "uint256",
                  "name": "tokenId",
                  "type": "uint256"
                },
                {
                  "internalType": "string",
                  "name": "tokenURI",
                  "type": "string"
                }
              ],
              "internalType": "struct EnglishAuction.NFTInfo",
              "name": "nftInfo",
              "type": "tuple"
            },
            {
              "internalType": "uint256",
              "name": "startingAt",
              "type": "uint256"
            },
            {
              "internalType": "uint256",
              "name": "endingAt",
              "type": "uint256"
            },
            {
              "internalType": "uint256",
              "name": "startingPrice",
              "type": "uint256"
            },
            {
              "internalType": "uint256",
              "name": "highestBid",
              "type": "uint256"
            },
            {
              "internalType": "address",
              "name": "highestBidder",
              "type": "address"
            },
            {
              "components": [
                {
                  "internalType": "address",
                  "name": "bidder",
                  "type": "address"
                },
                {
                  "internalType": "uint256",
                  "name": "bidAmount",
                  "type": "uint256"
                },
                {
                  "internalType": "uint256",
                  "name": "bidTime",
                  "type": "uint256"
                }
              ],
              "internalType": "struct EnglishAuction.Bidder[]",
              "name": "bidders",
              "type": "tuple[]"
            },
            {
              "internalType": "enum EnglishAuction.AuctionStatus",
              "name": "status",
              "type": "uint8"
            }
          ],
          "internalType": "struct EnglishAuction.Auction[]",
          "name": "",
          "type": "tuple[]"
        }
      ],
      "stateMutability": "view",
      "type": "function"
    },
    {
      "inputs": [],
      "name": "getAllAuctions",
      "outputs": [
        {
          "components": [
            {
              "internalType": "address",
              "name": "seller",
              "type": "address"
            },
            {
              "components": [
                {
                  "internalType": "address",
                  "name": "nftAddress",
                  "type": "address"
                },
                {
                  "internalType": "uint256",
                  "name": "tokenId",
                  "type": "uint256"
                },
                {
                  "internalType": "string",
                  "name": "tokenURI",
                  "type": "string"
                }
              ],
              "internalType": "struct EnglishAuction.NFTInfo",
              "name": "nftInfo",
              "type": "tuple"
            },
            {
              "internalType": "uint256",
              "name": "startingAt",
              "type": "uint256"
            },
            {
              "internalType": "uint256",
              "name": "endingAt",
              "type": "uint256"
            },
            {
              "internalType": "uint256",
              "name": "startingPrice",
              "type": "uint256"
            },
            {
              "internalType": "uint256",
              "name": "highestBid",
              "type": "uint256"
            },
            {
              "internalType": "address",
              "name": "highestBidder",
              "type": "address"
            },
            {
              "components": [
                {
                  "internalType": "address",
                  "name": "bidder",
                  "type": "address"
                },
                {
                  "internalType": "uint256",
                  "name": "bidAmount",
                  "type": "uint256"
                },
                {
                  "internalType": "uint256",
                  "name": "bidTime",
                  "type": "uint256"
                }
              ],
              "internalType": "struct EnglishAuction.Bidder[]",
              "name": "bidders",
              "type": "tuple[]"
            },
            {
              "internalType": "enum EnglishAuction.AuctionStatus",
              "name": "status",
              "type": "uint8"
            }
          ],
          "internalType": "struct EnglishAuction.Auction[]",
          "name": "",
          "type": "tuple[]"
        }
      ],
      "stateMutability": "view",
      "type": "function"
    },
    {
      "inputs": [
        {
          "internalType": "address",
          "name": "_nftAddress",
          "type": "address"
        },
        {
          "internalType": "uint256",
          "name": "_tokenId",
          "type": "uint256"
        }
      ],
      "name": "getAuction",
      "outputs": [
        {
          "components": [
            {
              "internalType": "address",
              "name": "seller",
              "type": "address"
            },
            {
              "components": [
                {
                  "internalType": "address",
                  "name": "nftAddress",
                  "type": "address"
                },
                {
                  "internalType": "uint256",
                  "name": "tokenId",
                  "type": "uint256"
                },
                {
                  "internalType": "string",
                  "name": "tokenURI",
                  "type": "string"
                }
              ],
              "internalType": "struct EnglishAuction.NFTInfo",
              "name": "nftInfo",
              "type": "tuple"
            },
            {
              "internalType": "uint256",
              "name": "startingAt",
              "type": "uint256"
            },
            {
              "internalType": "uint256",
              "name": "endingAt",
              "type": "uint256"
            },
            {
              "internalType": "uint256",
              "name": "startingPrice",
              "type": "uint256"
            },
            {
              "internalType": "uint256",
              "name": "highestBid",
              "type": "uint256"
            },
            {
              "internalType": "address",
              "name": "highestBidder",
              "type": "address"
            },
            {
              "components": [
                {
                  "internalType": "address",
                  "name": "bidder",
                  "type": "address"
                },
                {
                  "internalType": "uint256",
                  "name": "bidAmount",
                  "type": "uint256"
                },
                {
                  "internalType": "uint256",
                  "name": "bidTime",
                  "type": "uint256"
                }
              ],
              "internalType": "struct EnglishAuction.Bidder[]",
              "name": "bidders",
              "type": "tuple[]"
            },
            {
              "internalType": "enum EnglishAuction.AuctionStatus",
              "name": "status",
              "type": "uint8"
            }
          ],
          "internalType": "struct EnglishAuction.Auction",
          "name": "",
          "type": "tuple"
        }
      ],
      "stateMutability": "view",
      "type": "function"
    },
    {
      "inputs": [
        {
          "internalType": "address",
          "name": "_user",
          "type": "address"
        }
      ],
      "name": "getAuctionsByUser",
      "outputs": [
        {
          "components": [
            {
              "internalType": "address",
              "name": "seller",
              "type": "address"
            },
            {
              "components": [
                {
                  "internalType": "address",
                  "name": "nftAddress",
                  "type": "address"
                },
                {
                  "internalType": "uint256",
                  "name": "tokenId",
                  "type": "uint256"
                },
                {
                  "internalType": "string",
                  "name": "tokenURI",
                  "type": "string"
                }
              ],
              "internalType": "struct EnglishAuction.NFTInfo",
              "name": "nftInfo",
              "type": "tuple"
            },
            {
              "internalType": "uint256",
              "name": "startingAt",
              "type": "uint256"
            },
            {
              "internalType": "uint256",
              "name": "endingAt",
              "type": "uint256"
            },
            {
              "internalType": "uint256",
              "name": "startingPrice",
              "type": "uint256"
            },
            {
              "internalType": "uint256",
              "name": "highestBid",
              "type": "uint256"
            },
            {
              "internalType": "address",
              "name": "highestBidder",
              "type": "address"
            },
            {
              "components": [
                {
                  "internalType": "address",
                  "name": "bidder",
                  "type": "address"
                },
                {
                  "internalType": "uint256",
                  "name": "bidAmount",
                  "type": "uint256"
                },
                {
                  "internalType": "uint256",
                  "name": "bidTime",
                  "type": "uint256"
                }
              ],
              "internalType": "struct EnglishAuction.Bidder[]",
              "name": "bidders",
              "type": "tuple[]"
            },
            {
              "internalType": "enum EnglishAuction.AuctionStatus",
              "name": "status",
              "type": "uint8"
            }
          ],
          "internalType": "struct EnglishAuction.Auction[]",
          "name": "",
          "type": "tuple[]"
        }
      ],
      "stateMutability": "view",
      "type": "function"
    }
  ],
  "transactionHash": "0xbd57a82c969126434eda9d93e55e22ab1599b74804fac381b8366af42ac56724",
  "args": [
    "0xAAbd2411F9E51D32E2EeA0a2cB55361CEF6af6fB"
  ],
  "numDeployments": 1,
  "solcInputHash": "d667e0ff8eacbe4b7dbf9ec436e43668",
  "bytecode": "0x60a06040523480156200005e5760405162461bcd60e51b815260206004820152602260248201527f45746865722073656e7420746f206e6f6e2d70617961626c652066756e637469604482019081526137b760f11b6064830152608482fd5b5060405162003259380380620032598339810160408190526200008191620000e0565b6001600160a01b038116620000ce5760405162461bcd60e51b815260206004820152600f60248201526e496e76616c6964206164647265737360881b604482015260640160405180910390fd5b6001600160a01b03166080526200015d565b6000602082840312156200013e5760405162461bcd60e51b815260206004820152602260248201527f414249206465636f64696e673a207475706c65206461746120746f6f2073686f6044820152611c9d60f21b6064820152608481fd5b81516001600160a01b03811681146200015657600080fd5b9392505050565b6080516130cb6200018e6000396000818161023f0152818161083c0152818161097601526119a401526130cb6000f3fe6080604052600436106100915760003560e01c806361beb1d71161005957806361beb1d7146102e8578063762a66a21461034357806388cedbc4146103ab578063cbd2bdfd14610406578063cf44b5d51461045657610091565b80630f41ba4b146100f65780632ffee7a61461010b578063319a709f1461018a5780633a25a1a6146101f257806344f91c1e14610279575b60405162461bcd60e51b815260206004820152603560248201527f436f6e747261637420646f6573206e6f7420686176652066616c6c6261636b2060448201908152746e6f7220726563656976652066756e6374696f6e7360581b6064830152608482fd5b610109610104366004612940565b6104a6565b005b3480156101525760405162461bcd60e51b81526020600482015260226024820152600080516020613056833981519152604482019081526137b760f11b6064830152608482fd5b50610166610161366004612978565b610aa7565b604080516001600160a01b0390931683526020830191909152015b60405180910390f35b3480156101d15760405162461bcd60e51b81526020600482015260226024820152600080516020613056833981519152604482019081526137b760f11b6064830152608482fd5b506101e56101e0366004612994565b610adf565b6040516101819190612b60565b3480156102395760405162461bcd60e51b81526020600482015260226024820152600080516020613056833981519152604482019081526137b760f11b6064830152608482fd5b506102617f000000000000000000000000000000000000000000000000000000000000000081565b6040516001600160a01b039091168152602001610181565b3480156102c05760405162461bcd60e51b81526020600482015260226024820152600080516020613056833981519152604482019081526137b760f11b6064830152608482fd5b506102d46102cf366004612bc4565b610e86565b604051610181989796959493929190612bf3565b34801561032f5760405162461bcd60e51b81526020600482015260226024820152600080516020613056833981519152604482019081526137b760f11b6064830152608482fd5b5061010961033e366004612c57565b610fa1565b34801561038a5760405162461bcd60e51b81526020600482015260226024820152600080516020613056833981519152604482019081526137b760f11b6064830152608482fd5b5061039e610399366004612bc4565b611331565b6040516101819190612c95565b3480156103f25760405162461bcd60e51b81526020600482015260226024820152600080516020613056833981519152604482019081526137b760f11b6064830152608482fd5b50610109610401366004612bc4565b611542565b34801561044d5760405162461bcd60e51b81526020600482015260226024820152600080516020613056833981519152604482019081526137b760f11b6064830152608482fd5b506101e5611af5565b34801561049d5760405162461bcd60e51b81526020600482015260226024820152600080516020613056833981519152604482019081526137b760f11b6064830152608482fd5b506101e5611dc7565b6001600160a01b038084166000908152602081815260408083208684528252808320815161012081018352815486168152825160608101845260018301805490971681526002830154818601526003830180548b988b989794969487019490929084019161051390612ca8565b80601f016020809104026020016040519081016040528092919081815260200182805461053f90612ca8565b801561058c5780601f106105615761010080835404028352916020019161058c565b820191906000526020600020905b81548152906001019060200180831161056f57829003601f168201915b5050505050815250508152602001600482015481526020016005820154815260200160068201548152602001600782015481526020016008820160009054906101000a90046001600160a01b03166001600160a01b03166001600160a01b0316815260200160098201805480602002602001604051908101604052809291908181526020016000905b8282101561066a576000848152602090819020604080516060810182526003860290920180546001600160a01b0316835260018082015484860152600290910154918301919091529083529092019101610615565b50505090825250600a82015460209091019060ff16600281111561069057610690612a8c565b60028111156106a1576106a1612a8c565b9052509050600181610100015160028111156106bf576106bf612a8c565b1461070b5760405162461bcd60e51b815260206004820152601760248201527641756374696f6e206e6f7420696e2070726f677265737360481b60448201526064015b60405180910390fd5b60006107178787611331565b9050336001600160a01b031681600001516001600160a01b0316036107725760405162461bcd60e51b815260206004820152601160248201527014d95b1b195c8818d85b9b9bdd08189a59607a1b6044820152606401610702565b60c08101516001600160a01b03166107d25780608001518510156107cd5760405162461bcd60e51b815260206004820152601260248201527142696420616d6f756e7420746f6f206c6f7760701b6044820152606401610702565b61081a565b8060a00151851161081a5760405162461bcd60e51b815260206004820152601260248201527142696420616d6f756e7420746f6f206c6f7760701b6044820152606401610702565b6040516323b872dd60e01b8152336004820152306024820152604481018690527f00000000000000000000000000000000000000000000000000000000000000006001600160a01b0316906323b872dd90606401602060405180830381600087803b1580156108c65760405162461bcd60e51b81526020600482015260256024820152600080516020613076833981519152604482019081526420636f646560d81b6064830152608482fd5b505af11580156108da573d6000803e3d6000fd5b505050506040513d601f19601f820116820180604052508101906108fe9190612cdc565b6109425760405162461bcd60e51b8152602060048201526015602482015274151bdad95b881d1c985b9cd9995c8819985a5b1959605a1b6044820152606401610702565b60c08101516001600160a01b031615610a925760c081015160a082015160405163a9059cbb60e01b81526001600160a01b037f0000000000000000000000000000000000000000000000000000000000000000169263a9059cbb926109bd926004016001600160a01b03929092168252602082015260400190565b602060405180830381600087803b158015610a155760405162461bcd60e51b81526020600482015260256024820152600080516020613076833981519152604482019081526420636f646560d81b6064830152608482fd5b505af1158015610a29573d6000803e3d6000fd5b505050506040513d601f19601f82011682018060405250810190610a4d9190612cdc565b610a925760405162461bcd60e51b81526020600482015260166024820152751499599d5b99081d1c985b9cd9995c8819985a5b195960521b6044820152606401610702565b610a9e8787338861217e565b50505050505050565b60018181548110610ab757600080fd5b6000918252602090912060029091020180546001909101546001600160a01b03909116915082565b60606000805b600154811015610b7257600060018281548110610b0457610b04612d01565b60009182526020808320604080518082018252600290940290910180546001600160a01b0390811680865260019092015485850190815291865285845282862091518652925290922054909250868216911603610b695782610b6581612d2d565b9350505b50600101610ae5565b5060008167ffffffffffffffff811115610b8e57610b8e612d46565b604051908082528060200260200182016040528015610bc757816020015b610bb461283f565b815260200190600190039081610bac5790505b5090506000805b600154811015610e7c57600060018281548110610bed57610bed612d01565b60009182526020808320604080518082018252600290940290910180546001600160a01b0390811680865260019092015485850190815291865285845282862091518652925290922054909250888216911603610e735780516001600160a01b0390811660009081526020818152604080832082860151845282529182902082516101208101845281548516815283516060810185526001830180549096168152600283015481850152600383018054929693959487019491939291840191610cb590612ca8565b80601f0160208091040260200160405190810160405280929190818152602001828054610ce190612ca8565b8015610d2e5780601f10610d0357610100808354040283529160200191610d2e565b820191906000526020600020905b815481529060010190602001808311610d1157829003601f168201915b5050505050815250508152602001600482015481526020016005820154815260200160068201548152602001600782015481526020016008820160009054906101000a90046001600160a01b03166001600160a01b03166001600160a01b0316815260200160098201805480602002602001604051908101604052809291908181526020016000905b82821015610e0c576000848152602090819020604080516060810182526003860290920180546001600160a01b0316835260018082015484860152600290910154918301919091529083529092019101610db7565b50505090825250600a82015460209091019060ff166002811115610e3257610e32612a8c565b6002811115610e4357610e43612a8c565b81525050848481518110610e5957610e59612d01565b60200260200101819052508280610e6f90612d2d565b9350505b50600101610bce565b5090949350505050565b6000602081815292815260408082208452918152819020805482516060810184526001830180546001600160a01b03908116835260028501549683019690965260038401805496909316959394919390929184019190610ee590612ca8565b80601f0160208091040260200160405190810160405280929190818152602001828054610f1190612ca8565b8015610f5e5780601f10610f3357610100808354040283529160200191610f5e565b820191906000526020600020905b815481529060010190602001808311610f4157829003601f168201915b5050509190925250505060048201546005830154600684015460078501546008860154600a90960154949593949293919290916001600160a01b03169060ff1688565b6001600160a01b038416610fe95760405162461bcd60e51b815260206004820152600f60248201526e496e76616c6964206164647265737360881b6044820152606401610702565b6040516331a9108f60e11b81526004810184905233906001600160a01b03861690636352211e9060240160206040518083038186803b1580156110695760405162461bcd60e51b81526020600482015260256024820152600080516020613076833981519152604482019081526420636f646560d81b6064830152608482fd5b505afa15801561107d573d6000803e3d6000fd5b505050506040513d601f19601f820116820180604052508101906110a19190612d5c565b6001600160a01b0316146110ea5760405162461bcd60e51b815260206004820152601060248201526f139bdd081bdddb995c881bd98813919560821b6044820152606401610702565b60405163020604bf60e21b81526004810184905230906001600160a01b0386169063081812fc9060240160206040518083038186803b15801561116a5760405162461bcd60e51b81526020600482015260256024820152600080516020613076833981519152604482019081526420636f646560d81b6064830152608482fd5b505afa15801561117e573d6000803e3d6000fd5b505050506040513d601f19601f820116820180604052508101906111a29190612d5c565b6001600160a01b0316148061126d575060405163e985e9c560e01b81523360048201523060248201526001600160a01b0385169063e985e9c59060440160206040518083038186803b1580156112355760405162461bcd60e51b81526020600482015260256024820152600080516020613076833981519152604482019081526420636f646560d81b6064830152608482fd5b505afa158015611249573d6000803e3d6000fd5b505050506040513d601f19601f8201168201806040525081019061126d9190612cdc565b6112b05760405162461bcd60e51b8152602060048201526014602482015273139bdd08185c1c1c9bdd995908199bdc8813919560621b6044820152606401610702565b6001600160a01b03841660009081526020818152604080832086845290915290206002600a82015460ff1660028111156112ec576112ec612a8c565b0361131e576001600160a01b0385166000908152602081815260408083208784529091529020600a01805460ff191690555b61132a85858585612252565b5050505050565b61133961283f565b6001600160a01b038084166000908152602081815260408083208684528252918290208251610120810184528154851681528351606081018552600183018054909616815260028301548185015260038301805493969295879587019492939290840191906113a790612ca8565b80601f01602080910402602001604051908101604052809291908181526020018280546113d390612ca8565b80156114205780601f106113f557610100808354040283529160200191611420565b820191906000526020600020905b81548152906001019060200180831161140357829003601f168201915b5050505050815250508152602001600482015481526020016005820154815260200160068201548152602001600782015481526020016008820160009054906101000a90046001600160a01b03166001600160a01b03166001600160a01b0316815260200160098201805480602002602001604051908101604052809291908181526020016000905b828210156114fe576000848152602090819020604080516060810182526003860290920180546001600160a01b03168352600180820154848601526002909101549183019190915290835290920191016114a9565b50505090825250600a82015460209091019060ff16600281111561152457611524612a8c565b600281111561153557611535612a8c565b9052509150505b92915050565b6001600160a01b038083166000908152602081815260408083208584528252808320815161012081018352815486168152825160608101845260018301805490971681526002830154818601526003830180548a988a98979496948701949092908401916115af90612ca8565b80601f01602080910402602001604051908101604052809291908181526020018280546115db90612ca8565b80156116285780601f106115fd57610100808354040283529160200191611628565b820191906000526020600020905b81548152906001019060200180831161160b57829003601f168201915b5050505050815250508152602001600482015481526020016005820154815260200160068201548152602001600782015481526020016008820160009054906101000a90046001600160a01b03166001600160a01b03166001600160a01b0316815260200160098201805480602002602001604051908101604052809291908181526020016000905b82821015611706576000848152602090819020604080516060810182526003860290920180546001600160a01b03168352600180820154848601526002909101549183019190915290835290920191016116b1565b50505090825250600a82015460209091019060ff16600281111561172c5761172c612a8c565b600281111561173d5761173d612a8c565b90525090506001816101000151600281111561175b5761175b612a8c565b146117a25760405162461bcd60e51b815260206004820152601760248201527641756374696f6e206e6f7420696e2070726f677265737360481b6044820152606401610702565b60006117ae8686611331565b80519091506001600160a01b0316331461180a5760405162461bcd60e51b815260206004820152601b60248201527f4f6e6c792073656c6c65722063616e20656e642061756374696f6e00000000006044820152606401610702565b80606001514210156118565760405162461bcd60e51b8152602060048201526015602482015274105d58dd1a5bdb881b9bdd08195b991959081e595d605a1b6044820152606401610702565b61186086866127b4565b60c08101516001600160a01b0316158061187c575060a0810151155b156118c8576040516000815285906001600160a01b038816907fe0c4b41d54d853b2b6f60078a33a889662b42592856bcd4e749b2f0927a9ac089060200160405180910390a35061132a565b805160c0820151604051632142170760e11b81526001600160a01b039283166004820152908216602482015260448101879052908716906342842e0e90606401600060405180830381600087803b1580156119605760405162461bcd60e51b81526020600482015260256024820152600080516020613076833981519152604482019081526420636f646560d81b6064830152608482fd5b505af1158015611974573d6000803e3d6000fd5b5050825160a084015160405163a9059cbb60e01b81526001600160a01b03928316600482015260248101919091527f0000000000000000000000000000000000000000000000000000000000000000909116925063a9059cbb9150604401602060405180830381600087803b158015611a2a5760405162461bcd60e51b81526020600482015260256024820152600080516020613076833981519152604482019081526420636f646560d81b6064830152608482fd5b505af1158015611a3e573d6000803e3d6000fd5b505050506040513d601f19601f82011682018060405250810190611a629190612cdc565b611aa65760405162461bcd60e51b8152602060048201526015602482015274151bdad95b881d1c985b9cd9995c8819985a5b1959605a1b6044820152606401610702565b60c08101516040516001600160a01b03918216815286918816907fe0c4b41d54d853b2b6f60078a33a889662b42592856bcd4e749b2f0927a9ac089060200160405180910390a3505050505050565b60015460609060009067ffffffffffffffff811115611b1657611b16612d46565b604051908082528060200260200182016040528015611b4f57816020015b611b3c61283f565b815260200190600190039081611b345790505b50905060005b600154811015611dc157600060018281548110611b7457611b74612d01565b60009182526020808320604080518082018252600294850290920180546001600160a01b0390811680855260019283015485870190815290885287865283882090518852855295829020825161012081018452815488168152835160608101855292820180549098168352958101548286015260038101805494985095969095948701949193909284019190611c0990612ca8565b80601f0160208091040260200160405190810160405280929190818152602001828054611c3590612ca8565b8015611c825780601f10611c5757610100808354040283529160200191611c82565b820191906000526020600020905b815481529060010190602001808311611c6557829003601f168201915b5050505050815250508152602001600482015481526020016005820154815260200160068201548152602001600782015481526020016008820160009054906101000a90046001600160a01b03166001600160a01b03166001600160a01b0316815260200160098201805480602002602001604051908101604052809291908181526020016000905b82821015611d60576000848152602090819020604080516060810182526003860290920180546001600160a01b0316835260018082015484860152600290910154918301919091529083529092019101611d0b565b50505090825250600a82015460209091019060ff166002811115611d8657611d86612a8c565b6002811115611d9757611d97612a8c565b81525050838381518110611dad57611dad612d01565b602090810291909101015250600101611b55565b50919050565b60606000805b600154811015611e6b57600060018281548110611dec57611dec612d01565b60009182526020808320604080518082018252600294850290920180546001600160a01b031680845260019182015484860190815290875286855282872090518752909352909320600a01549293509160ff1690811115611e4f57611e4f612a8c565b03611e625782611e5e81612d2d565b9350505b50600101611dcd565b5060008167ffffffffffffffff811115611e8757611e87612d46565b604051908082528060200260200182016040528015611ec057816020015b611ead61283f565b815260200190600190039081611ea55790505b5090506000805b60015481108015611ed757508382105b1561217557600060018281548110611ef157611ef1612d01565b60009182526020808320604080518082018252600294850290920180546001600160a01b03908116808552600192830154858701908152908852878652838820905188528552828720835161012081018552815483168152845160608101865293820180549093168452968101548387015260038101805495995090958701949293919291840191611f8290612ca8565b80601f0160208091040260200160405190810160405280929190818152602001828054611fae90612ca8565b8015611ffb5780601f10611fd057610100808354040283529160200191611ffb565b820191906000526020600020905b815481529060010190602001808311611fde57829003601f168201915b5050505050815250508152602001600482015481526020016005820154815260200160068201548152602001600782015481526020016008820160009054906101000a90046001600160a01b03166001600160a01b03166001600160a01b0316815260200160098201805480602002602001604051908101604052809291908181526020016000905b828210156120d9576000848152602090819020604080516060810182526003860290920180546001600160a01b0316835260018082015484860152600290910154918301919091529083529092019101612084565b50505090825250600a82015460209091019060ff1660028111156120ff576120ff612a8c565b600281111561211057612110612a8c565b90525090506001816101000151600281111561212e5761212e612a8c565b03612160578085858151811061214657612146612d01565b6020026020010181905250838061215c90612d2d565b9450505b5050808061216d90612d2d565b915050611ec7565b50909392505050565b6001600160a01b0384811660008181526020818152604080832088845282528083206008810180546001600160a01b03199081168a89169081179092556007830189905583516060810185529182528185018981524283860190815260098501805460018181018355918a529888902094516003909902909401805490931697909916969096178155945190850155945160029093019290925590518481528692917f87f5b2fe112bf269d30fb8ca9dc0bde0afd0cc39258e13fafd75fe794795bf0e910160405180910390a35050505050565b6001600160a01b038085166000908152602081815260408083208784528252808320815161012081018352815486168152825160608101845260018301805490971681526002830154818601526003830180548c988c98979496948701949092908401916122bf90612ca8565b80601f01602080910402602001604051908101604052809291908181526020018280546122eb90612ca8565b80156123385780601f1061230d57610100808354040283529160200191612338565b820191906000526020600020905b81548152906001019060200180831161231b57829003601f168201915b5050505050815250508152602001600482015481526020016005820154815260200160068201548152602001600782015481526020016008820160009054906101000a90046001600160a01b03166001600160a01b03166001600160a01b0316815260200160098201805480602002602001604051908101604052809291908181526020016000905b82821015612416576000848152602090819020604080516060810182526003860290920180546001600160a01b03168352600180820154848601526002909101549183019190915290835290920191016123c1565b50505090825250600a82015460209091019060ff16600281111561243c5761243c612a8c565b600281111561244d5761244d612a8c565b90525090506000816101000151600281111561246b5761246b612a8c565b146124b85760405162461bcd60e51b815260206004820152601760248201527f41756374696f6e20616c726561647920637265617465640000000000000000006044820152606401610702565b60405163c87b56dd60e01b8152600481018790526000906001600160a01b0389169063c87b56dd9060240160006040518083038186803b1580156125395760405162461bcd60e51b81526020600482015260256024820152600080516020613076833981519152604482019081526420636f646560d81b6064830152608482fd5b505afa15801561254d573d6000803e3d6000fd5b505050506040513d6000823e601f3d908101601f191682016040526125759190810190612d7c565b9050336000808a6001600160a01b03166001600160a01b03168152602001908152602001600020600089815260200190815260200160002060000160006101000a8154816001600160a01b0302191690836001600160a01b031602179055506040518060600160405280896001600160a01b03168152602001888152602001828152506000808a6001600160a01b03166001600160a01b03168152602001908152602001600020600089815260200190815260200160002060010160008201518160000160006101000a8154816001600160a01b0302191690836001600160a01b0316021790555060208201518160010155604082015181600201908161267c9190612f6c565b5050506001600160a01b0388166000908152602081815260408083208a845290915290204260049091018190556126b490869061302c565b6001600160a01b038981166000818152602081815260408083208d845282528083206005810196909655600686018c9055600786018c9055600a9095018054600160ff199091168117909155855180870187528481529182018d81528154808301835591845291517fb10e2d527612073b26eecdfd717e6a320cf44b4afac2b0732d9fcbe2b7fa0cf6600290920291820180546001600160a01b0319169190961617909455517fb10e2d527612073b26eecdfd717e6a320cf44b4afac2b0732d9fcbe2b7fa0cf79093019290925591518992917f3249a06bd478adf780bb7930214ad005e9cfa517d63221c0b77f27199d1a58b391a35050505050505050565b6001600160a01b0382166000908152602081815260408083208484529091529020600a8101805460ff191660021790555b60098101546001101561283a57806009018054806128055761280561303f565b60008281526020812060036000199093019283020180546001600160a01b0319168155600181018290556002015590556127e5565b505050565b60405180610120016040528060006001600160a01b03168152602001612888604051806060016040528060006001600160a01b0316815260200160008152602001606081525090565b81526020016000815260200160008152602001600081526020016000815260200160006001600160a01b0316815260200160608152602001600060028111156128d3576128d3612a8c565b905290565b60405162461bcd60e51b815260206004820152602260248201527f414249206465636f64696e673a207475706c65206461746120746f6f2073686f6044820152611c9d60f21b6064820152608481fd5b6001600160a01b038116811461293d57600080fd5b50565b600080600060608486031215612958576129586128d8565b833561296381612928565b95602085013595506040909401359392505050565b60006020828403121561298d5761298d6128d8565b5035919050565b6000602082840312156129a9576129a96128d8565b81356129b481612928565b9392505050565b60005b838110156129d65781810151838201526020016129be565b50506000910152565b60018060a01b0381511682526020810151602083015260006040820151606060408501528051806060860152612a1c8160808701602085016129bb565b601f01601f1916939093016080019392505050565b60008151808452602080850194506020840160005b83811015612a8157815180516001600160a01b0316885283810151848901526040908101519088015260609096019590820190600101612a46565b509495945050505050565b634e487b7160e01b600052602160045260246000fd5b60038110612ac057634e487b7160e01b600052602160045260246000fd5b9052565b80516001600160a01b0316825260006101206020830151816020860152612aed828601826129df565b91505060408301516040850152606083015160608501526080830151608085015260a083015160a085015260c0830151612b3260c08601826001600160a01b03169052565b5060e083015184820360e0860152612b4a8282612a31565b91505061010080840151610e7c82870182612aa2565b600060208083016020845280855180835260408601915060408160051b87010192506020870160005b82811015612bb757603f19888603018452612ba5858351612ac4565b94509285019290850190600101612b89565b5092979650505050505050565b60008060408385031215612bda57612bda6128d8565b8235612be581612928565b946020939093013593505050565b6001600160a01b03898116825261010060208301819052600091612c198483018c6129df565b92508960408501528860608501528760808501528660a085015280861660c08501525050612c4a60e0830184612aa2565b9998505050505050505050565b60008060008060808587031215612c7057612c706128d8565b8435612c7b81612928565b966020860135965060408601359560600135945092505050565b6020815260006129b46020830184612ac4565b600181811c90821680612cbc57607f821691505b602082108103611dc157634e487b7160e01b600052602260045260246000fd5b600060208284031215612cf157612cf16128d8565b815180151581146129b457600080fd5b634e487b7160e01b600052603260045260246000fd5b634e487b7160e01b600052601160045260246000fd5b600060018201612d3f57612d3f612d17565b5060010190565b634e487b7160e01b600052604160045260246000fd5b600060208284031215612d7157612d716128d8565b81516129b481612928565b60006020808385031215612d9257612d926128d8565b825167ffffffffffffffff80821115612df55760405162461bcd60e51b815260048101849052602260248201527f414249206465636f64696e673a20696e76616c6964207475706c65206f666673604482015261195d60f21b6064820152608481fd5b818501915085601f830112612e5d5760405162461bcd60e51b815260048101849052602b60248201527f414249206465636f64696e673a20696e76616c69642063616c6c64617461206160448201526a1c9c985e481bd9999cd95d60aa1b6064820152608481fd5b815181811115612e6f57612e6f612d46565b604051601f8201601f19908116603f01168101908382118183101715612e9757612e97612d46565b816040528281528886848701011115612f015760405162461bcd60e51b815260048101879052602760248201527f414249206465636f64696e673a20696e76616c69642062797465206172726179604482015266040d8cadccee8d60cb1b60648201529350608484fd5b612f10838783018888016129bb565b98975050505050505050565b601f82111561283a576000816000526020600020601f850160051c81016020861015612f455750805b601f850160051c820191505b81811015612f6457828155600101612f51565b505050505050565b815167ffffffffffffffff811115612f8657612f86612d46565b612f9a81612f948454612ca8565b84612f1c565b602080601f831160018114612fcf5760008415612fb75750858301515b600019600386901b1c1916600185901b178555612f64565b600085815260208120601f198616915b82811015612ffe57888601518255948401946001909101908401612fdf565b508582101561301c5787850151600019600388901b60f8161c191681555b5050505050600190811b01905550565b8082018082111561153c5761153c612d17565b634e487b7160e01b600052603160045260246000fdfe45746865722073656e7420746f206e6f6e2d70617961626c652066756e63746954617267657420636f6e747261637420646f6573206e6f7420636f6e7461696ea2646970667358221220566cd29e701f3021d11f880ffda27ffdaf3212e458b69b6f7dae1c8e3d9b5f1164736f6c63430008160033",
  "devdoc": {
    "kind": "dev",
    "methods": {
      "bid(address,uint256,uint256)": {
        "params": {
          "_nftAddress": "ERC721 address",
          "_tokenId": "Token ID of the item being auctioned"
        }
      },
      "createAuction(address,uint256,uint256,uint256)": {
        "details": "Only the owner of this NFT can list the item",
        "params": {
          "_duration": "How long the auction takes to end",
          "_nftAddress": "ERC721 Address",
          "_startingPrice": "Auction starting price",
          "_tokenId": "Token ID of the item being auctioned"
        }
      },
      "endAuction(address,uint256)": {
        "details": "This function can only be caller by the seller address.It is better to make an automation to call this function once the real time reaches ending time of the      auction using oracle networks like ChainLink, but we kept it simple by making it called by the seller.",
        "params": {
          "_nftAddress": "ERC721 address",
          "_tokenId": "Token ID of the item being auctioned"
        }
      },
      "getActiveAuctions()": {
        "returns": {
          "_0": "activeList Array of active auctions"
        }
      },
      "getAllAuctions()": {
        "returns": {
          "_0": "auctionList Array of all auctions"
        }
      },
      "getAuction(address,uint256)": {
        "details": "if there is no listed auction of this nftAddress and tokenId, all returned value will be the default",
        "params": {
          "_nftAddress": "ERC721 address",
          "_tokenId": "token of the listed item in the auction"
        },
        "returns": {
          "_0": "Auction the auction information"
        }
      }
    },
    "version": 1
  },
  "userdoc": {
    "kind": "user",
    "methods": {
      "auctions(address,uint256)": {
        "notice": "NFT address -> tokenId -> Auction Object"
      },
      "bid(address,uint256,uint256)": {
        "notice": "Add new bid in the given auction"
      },
      "createAuction(address,uint256,uint256,uint256)": {
        "notice": "Create new auction for a given NFT item"
      },
      "endAuction(address,uint256)": {
        "notice": "End the auction and transfer item to the highest bidder if existed, and send money to the seller."
      },
      "getActiveAuctions()": {
        "notice": "Get all active auctions"
      },
      "getAllAuctions()": {
        "notice": "Get all auctions"
      },
      "getAuction(address,uint256)": {
        "notice": "Getting all information about a given auction by giving `nftAddress` and `tokenId`"
      }
    },
    "version": 1
  },
  "storageLayout": {
    "storage": [
      {
        "astId": 3244,
        "contract": "contracts/EnglishAuction.sol:EnglishAuction",
        "label": "auctions",
        "offset": 0,
        "slot": "0",
        "type": "t_mapping(t_address,t_mapping(t_uint256,t_struct(Auction)3231_storage))"
      },
      {
        "astId": 3248,
        "contract": "contracts/EnglishAuction.sol:EnglishAuction",
        "label": "auctionRegistry",
        "offset": 0,
        "slot": "1",
        "type": "t_array(t_struct(AuctionInfo)3236_storage)dyn_storage"
      }
    ],
    "types": {
      "t_address": {
        "encoding": "inplace",
        "label": "address",
        "numberOfBytes": "20"
      },
      "t_array(t_struct(AuctionInfo)3236_storage)dyn_storage": {
        "base": "t_struct(AuctionInfo)3236_storage",
        "encoding": "dynamic_array",
        "label": "struct EnglishAuction.AuctionInfo[]",
        "numberOfBytes": "32"
      },
      "t_array(t_struct(Bidder)3200_storage)dyn_storage": {
        "base": "t_struct(Bidder)3200_storage",
        "encoding": "dynamic_array",
        "label": "struct EnglishAuction.Bidder[]",
        "numberOfBytes": "32"
      },
      "t_enum(AuctionStatus)3275": {
        "encoding": "inplace",
        "label": "enum EnglishAuction.AuctionStatus",
        "numberOfBytes": "1"
      },
      "t_mapping(t_address,t_mapping(t_uint256,t_struct(Auction)3231_storage))": {
        "encoding": "mapping",
        "key": "t_address",
        "label": "mapping(address => mapping(uint256 => struct EnglishAuction.Auction))",
        "numberOfBytes": "32",
        "value": "t_mapping(t_uint256,t_struct(Auction)3231_storage)"
      },
      "t_mapping(t_uint256,t_struct(Auction)3231_storage)": {
        "encoding": "mapping",
        "key": "t_uint256",
        "label": "mapping(uint256 => struct EnglishAuction.Auction)",
        "numberOfBytes": "32",
        "value": "t_struct(Auction)3231_storage"
      },
      "t_string_storage": {
        "encoding": "bytes",
        "label": "string",
        "numberOfBytes": "32"
      },
      "t_struct(Auction)3231_storage": {
        "encoding": "inplace",
        "label": "struct EnglishAuction.Auction",
        "members": [
          {
            "astId": 3210,
            "contract": "contracts/EnglishAuction.sol:EnglishAuction",
            "label": "seller",
            "offset": 0,
            "slot": "0",
            "type": "t_address"
          },
          {
            "astId": 3213,
            "contract": "contracts/EnglishAuction.sol:EnglishAuction",
            "label": "nftInfo",
            "offset": 0,
            "slot": "1",
            "type": "t_struct(NFTInfo)3207_storage"
          },
          {
            "astId": 3215,
            "contract": "contracts/EnglishAuction.sol:EnglishAuction",
            "label": "startingAt",
            "offset": 0,
            "slot": "4",
            "type": "t_uint256"
          },
          {
            "astId": 3217,
            "contract": "contracts/EnglishAuction.sol:EnglishAuction",
            "label": "endingAt",
            "offset": 0,
            "slot": "5",
            "type": "t_uint256"
          },
          {
            "astId": 3219,
            "contract": "contracts/EnglishAuction.sol:EnglishAuction",
            "label": "startingPrice",
            "offset": 0,
            "slot": "6",
            "type": "t_uint256"
          },
          {
            "astId": 3221,
            "contract": "contracts/EnglishAuction.sol:EnglishAuction",
            "label": "highestBid",
            "offset": 0,
            "slot": "7",
            "type": "t_uint256"
          },
          {
            "astId": 3223,
            "contract": "contracts/EnglishAuction.sol:EnglishAuction",
            "label": "highestBidder",
            "offset": 0,
            "slot": "8",
            "type": "t_address"
          },
          {
            "astId": 3227,
            "contract": "contracts/EnglishAuction.sol:EnglishAuction",
            "label": "bidders",
            "offset": 0,
            "slot": "9",
            "type": "t_array(t_struct(Bidder)3200_storage)dyn_storage"
          },
          {
            "astId": 3230,
            "contract": "contracts/EnglishAuction.sol:EnglishAuction",
            "label": "status",
            "offset": 0,
            "slot": "10",
            "type": "t_enum(AuctionStatus)3275"
          }
        ],
        "numberOfBytes": "352"
      },
      "t_struct(AuctionInfo)3236_storage": {
        "encoding": "inplace",
        "label": "struct EnglishAuction.AuctionInfo",
        "members": [
          {
            "astId": 3233,
            "contract": "contracts/EnglishAuction.sol:EnglishAuction",
            "label": "nftAddress",
            "offset": 0,
            "slot": "0",
            "type": "t_address"
          },
          {
            "astId": 3235,
            "contract": "contracts/EnglishAuction.sol:EnglishAuction",
            "label": "tokenId",
            "offset": 0,
            "slot": "1",
            "type": "t_uint256"
          }
        ],
        "numberOfBytes": "64"
      },
      "t_struct(Bidder)3200_storage": {
        "encoding": "inplace",
        "label": "struct EnglishAuction.Bidder",
        "members": [
          {
            "astId": 3195,
            "contract": "contracts/EnglishAuction.sol:EnglishAuction",
            "label": "bidder",
            "offset": 0,
            "slot": "0",
            "type": "t_address"
          },
          {
            "astId": 3197,
            "contract": "contracts/EnglishAuction.sol:EnglishAuction",
            "label": "bidAmount",
            "offset": 0,
            "slot": "1",
            "type": "t_uint256"
          },
          {
            "astId": 3199,
            "contract": "contracts/EnglishAuction.sol:EnglishAuction",
            "label": "bidTime",
            "offset": 0,
            "slot": "2",
            "type": "t_uint256"
          }
        ],
        "numberOfBytes": "96"
      },
      "t_struct(NFTInfo)3207_storage": {
        "encoding": "inplace",
        "label": "struct EnglishAuction.NFTInfo",
        "members": [
          {
            "astId": 3202,
            "contract": "contracts/EnglishAuction.sol:EnglishAuction",
            "label": "nftAddress",
            "offset": 0,
            "slot": "0",
            "type": "t_address"
          },
          {
            "astId": 3204,
            "contract": "contracts/EnglishAuction.sol:EnglishAuction",
            "label": "tokenId",
            "offset": 0,
            "slot": "1",
            "type": "t_uint256"
          },
          {
            "astId": 3206,
            "contract": "contracts/EnglishAuction.sol:EnglishAuction",
            "label": "tokenURI",
            "offset": 0,
            "slot": "2",
            "type": "t_string_storage"
          }
        ],
        "numberOfBytes": "96"
      },
      "t_uint256": {
        "encoding": "inplace",
        "label": "uint256",
        "numberOfBytes": "32"
      }
    }
  }
}