{
  "address": "0xF3c10DB38578992896B993fd6fAfB4E7069a8eAE",
  "abi": [
    {
      "inputs": [
        {
          "internalType": "address",
          "name": "_feeToSetter",
          "type": "address"
        }
      ],
      "stateMutability": "nonpayable",
      "type": "constructor"
    },
    {
      "anonymous": false,
      "inputs": [
        {
          "indexed": true,
          "internalType": "address",
          "name": "token0",
          "type": "address"
        },
        {
          "indexed": true,
          "internalType": "address",
          "name": "token1",
          "type": "address"
        },
        {
          "indexed": false,
          "internalType": "address",
          "name": "pair",
          "type": "address"
        },
        {
          "indexed": false,
          "internalType": "uint256",
          "name": "",
          "type": "uint256"
        }
      ],
      "name": "PairCreated",
      "type": "event"
    },
    {
      "inputs": [],
      "name": "PAIR_HASH",
      "outputs": [
        {
          "internalType": "bytes32",
          "name": "",
          "type": "bytes32"
        }
      ],
      "stateMutability": "view",
      "type": "function"
    },
    {
      "inputs": [
        {
          "internalType": "uint256",
          "name": "",
          "type": "uint256"
        }
      ],
      "name": "allPairs",
      "outputs": [
        {
          "internalType": "address",
          "name": "",
          "type": "address"
        }
      ],
      "stateMutability": "view",
      "type": "function"
    },
    {
      "inputs": [],
      "name": "allPairsLength",
      "outputs": [
        {
          "internalType": "uint256",
          "name": "",
          "type": "uint256"
        }
      ],
      "stateMutability": "view",
      "type": "function"
    },
    {
      "inputs": [
        {
          "internalType": "address",
          "name": "tokenA",
          "type": "address"
        },
        {
          "internalType": "address",
          "name": "tokenB",
          "type": "address"
        }
      ],
      "name": "createPair",
      "outputs": [
        {
          "internalType": "address",
          "name": "pair",
          "type": "address"
        }
      ],
      "stateMutability": "nonpayable",
      "type": "function"
    },
    {
      "inputs": [],
      "name": "feeTo",
      "outputs": [
        {
          "internalType": "address",
          "name": "",
          "type": "address"
        }
      ],
      "stateMutability": "view",
      "type": "function"
    },
    {
      "inputs": [],
      "name": "feeToSetter",
      "outputs": [
        {
          "internalType": "address",
          "name": "",
          "type": "address"
        }
      ],
      "stateMutability": "view",
      "type": "function"
    },
    {
      "inputs": [
        {
          "internalType": "address",
          "name": "",
          "type": "address"
        },
        {
          "internalType": "address",
          "name": "",
          "type": "address"
        }
      ],
      "name": "getPair",
      "outputs": [
        {
          "internalType": "address",
          "name": "",
          "type": "address"
        }
      ],
      "stateMutability": "view",
      "type": "function"
    },
    {
      "inputs": [
        {
          "internalType": "address",
          "name": "_feeTo",
          "type": "address"
        }
      ],
      "name": "setFeeTo",
      "outputs": [],
      "stateMutability": "nonpayable",
      "type": "function"
    },
    {
      "inputs": [
        {
          "internalType": "address",
          "name": "_feeToSetter",
          "type": "address"
        }
      ],
      "name": "setFeeToSetter",
      "outputs": [],
      "stateMutability": "nonpayable",
      "type": "function"
    }
  ],
  "transactionHash": "0xf241543c77d3c469d9eaa8de8ea4d94bb35acdeb416a001b84c5bdb20d71711e",
  "args": [
    "0x1485458Ba21df2371Aa01a914493B53fFf1784e4"
  ],
  "numDeployments": 1,
  "solcInputHash": "2cc49834f7cbbac3502a381830e9b7df",
  "bytecode": "0x608060405234801561005d5760405162461bcd60e51b815260206004820152602260248201527f45746865722073656e7420746f206e6f6e2d70617961626c652066756e637469604482019081526137b760f11b6064830152608482fd5b5060405161312d38038061312d83398101604081905261007c916100a1565b600180546001600160a01b0319166001600160a01b039290921691909117905561011c565b6000602082840312156100fe5760405162461bcd60e51b815260206004820152602260248201527f414249206465636f64696e673a207475706c65206461746120746f6f2073686f6044820152611c9d60f21b6064820152608481fd5b81516001600160a01b038116811461011557600080fd5b9392505050565b6130028061012b6000396000f3fe608060405234801561005d5760405162461bcd60e51b815260206004820152602260248201527f45746865722073656e7420746f206e6f6e2d70617961626c652066756e637469604482019081526137b760f11b6064830152608482fd5b50600436106100e05760003560e01c806364f91c72116100b357806364f91c72146101ad578063a2e74af6146101b5578063c9c65396146101ca578063e6a43905146101dd578063f46901ed14610211576100e0565b8063017e7e5814610145578063094b7415146101755780631e3dd18b14610188578063574f2ba31461019b575b60405162461bcd60e51b815260206004820152603560248201527f436f6e747261637420646f6573206e6f7420686176652066616c6c6261636b2060448201908152746e6f7220726563656976652066756e6374696f6e7360581b6064830152608482fd5b600054610158906001600160a01b031681565b6040516001600160a01b0390911681526020015b60405180910390f35b600154610158906001600160a01b031681565b610158610196366004610706565b610224565b6003545b60405190815260200161016c565b61019f61024e565b6101c86101c336600461073e565b61027b565b005b6101586101d8366004610763565b6102f3565b6101586101eb366004610763565b60026020908152600092835260408084209091529082529020546001600160a01b031681565b6101c861021f36600461073e565b610636565b6003818154811061023457600080fd5b6000918252602090912001546001600160a01b0316905081565b60405161025d602082016106a9565b6020820181038252601f19601f820116604052508051906020012081565b6001546001600160a01b031633146102d15760405162461bcd60e51b81526020600482015260146024820152732ab734b9bbb0b82b191d102327a92124a22222a760611b60448201526064015b60405180910390fd5b600180546001600160a01b0319166001600160a01b0392909216919091179055565b6000816001600160a01b0316836001600160a01b0316036103565760405162461bcd60e51b815260206004820152601e60248201527f556e697377617056323a204944454e544943414c5f414444524553534553000060448201526064016102c8565b600080836001600160a01b0316856001600160a01b03161061037957838561037c565b84845b90925090506001600160a01b0382166103d75760405162461bcd60e51b815260206004820152601760248201527f556e697377617056323a205a45524f5f4144445245535300000000000000000060448201526064016102c8565b6001600160a01b038281166000908152600260209081526040808320858516845290915290205416156104455760405162461bcd60e51b8152602060048201526016602482015275556e697377617056323a20504149525f45584953545360501b60448201526064016102c8565b6040516bffffffffffffffffffffffff19606084811b8216602084015283901b16603482015260480160405160208183030381529060405280519060200120604051610490906106a9565b8190604051809103906000f59050801580156104b0573d6000803e3d6000fd5b5060405163485cc95560e01b81526001600160a01b03848116600483015283811660248301529194509084169063485cc95590604401600060405180830381600087803b1580156105505760405162461bcd60e51b815260206004820152602560248201527f54617267657420636f6e747261637420646f6573206e6f7420636f6e7461696e604482019081526420636f646560d81b6064830152608482fd5b505af1158015610564573d6000803e3d6000fd5b505050506001600160a01b0382811660008181526002602081815260408084208787168086529083528185208054978b166001600160a01b031998891681179091559383528185208686528352818520805488168517905560038054600181018255958190527fc2575a0e9e593c00f959f8c92f12db2869c3395a3b0502d05e2516446f71f85b9095018054909716841790965592548351928352908201527f0d3648bd0f6ba80134a33ba9275ac585d9d315f0ad8355cddefde31afa28d0e9910160405180910390a3505092915050565b6001546001600160a01b031633146106875760405162461bcd60e51b81526020600482015260146024820152732ab734b9bbb0b82b191d102327a92124a22222a760611b60448201526064016102c8565b600080546001600160a01b0319166001600160a01b0392909216919091179055565b6128338061079a83390190565b60405162461bcd60e51b815260206004820152602260248201527f414249206465636f64696e673a207475706c65206461746120746f6f2073686f6044820152611c9d60f21b6064820152608481fd5b60006020828403121561071b5761071b6106b6565b5035919050565b80356001600160a01b038116811461073957600080fd5b919050565b600060208284031215610753576107536106b6565b61075c82610722565b9392505050565b60008060408385031215610779576107796106b6565b61078283610722565b915061079060208401610722565b9050925092905056fe60806040526001600c553480156100625760405162461bcd60e51b815260206004820152602260248201527f45746865722073656e7420746f206e6f6e2d70617961626c652066756e637469604482019081526137b760f11b6064830152608482fd5b50604080518082018252600a8152692ab734b9bbb0b8102b1960b11b6020918201528151808301835260018152603160f81b9082015281517f8b73c3c69bb8fe3d512ecc4cf759cc79239f7b179b0ffacaa9a75d522b39400f918101919091527fbfcc8ef98ffbf7b6c3fec7bf5185b566b9863e35a9d83acd49ad6824b5969738918101919091527fc89efdaa54c0f20c7adf612882df0950f5a951637e0307cdcb4c672f298b8bc660608201524660808201523060a082015260c00160408051601f198184030181529190528051602090910120600355600580546001600160a01b031916331790556126d88061015b6000396000f3fe608060405234801561005d5760405162461bcd60e51b815260206004820152602260248201527f45746865722073656e7420746f206e6f6e2d70617961626c652066756e637469604482019081526137b760f11b6064830152608482fd5b50600436106101f65760003560e01c80636a62784211610146578063ba9a7a56116100e4578063d21220a7116100be578063d21220a7146104b5578063d505accf146104c8578063dd62ed3e146104db578063fff6cae914610506576101f6565b8063ba9a7a5614610486578063bc25cf771461048f578063c45a0155146104a2576101f6565b80637ecebe00116101205780637ecebe001461040657806389afcb441461042657806395d89b411461044e578063a9059cbb14610473576101f6565b80636a627842146103ca57806370a08231146103dd5780637464fc3d146103fd576101f6565b806323b872dd116101b35780633644e5151161018d5780633644e5151461039c578063485cc955146103a55780635909c0d5146103b85780635a3d5493146103c1576101f6565b806323b872dd1461034857806330adf81f1461035b578063313ce56714610382576101f6565b8063022c0d9f1461025b57806306fdde03146102705780630902f1ac146102af578063095ea7b3146102e35780630dfe16811461030657806318160ddd14610331575b60405162461bcd60e51b815260206004820152603560248201527f436f6e747261637420646f6573206e6f7420686176652066616c6c6261636b2060448201908152746e6f7220726563656976652066756e6374696f6e7360581b6064830152608482fd5b61026e61026936600461215f565b61050e565b005b6102996040518060400160405280600a8152602001692ab734b9bbb0b8102b1960b11b81525081565b6040516102a69190612310565b60405180910390f35b6102b7610b00565b604080516001600160701b03948516815293909216602084015263ffffffff16908201526060016102a6565b6102f66102f1366004612343565b610b2a565b60405190151581526020016102a6565b600654610319906001600160a01b031681565b6040516001600160a01b0390911681526020016102a6565b61033a60005481565b6040519081526020016102a6565b6102f6610356366004612372565b610b41565b61033a7f99862f0478c2b3a8dcd67f078739cb4bdd9ef7b7f8f0ab9fadaec22c518882e281565b61038a601281565b60405160ff90911681526020016102a6565b61033a60035481565b61026e6103b33660046123b6565b610bbb565b61033a60095481565b61033a600a5481565b61033a6103d83660046123f2565b610c3a565b61033a6103eb3660046123f2565b60016020526000908152604090205481565b61033a600b5481565b61033a6104143660046123f2565b60046020526000908152604090205481565b6104396104343660046123f2565b610fa2565b604080519283526020830191909152016102a6565b610299604051806040016040528060068152602001652aa72496ab1960d11b81525081565b6102f6610481366004612343565b61143b565b61033a6103e881565b61026e61049d3660046123f2565b611448565b600554610319906001600160a01b031681565b600754610319906001600160a01b031681565b61026e6104d6366004612412565b6115a8565b61033a6104e93660046123b6565b600260209081526000928352604080842090915290825290205481565b61026e6117bc565b600c546001146105395760405162461bcd60e51b81526004016105309061248c565b60405180910390fd5b6000600c558415158061054c5750600084115b6105a65760405162461bcd60e51b815260206004820152602560248201527f556e697377617056323a20494e53554646494349454e545f4f55545055545f416044820152641353d5539560da1b6064820152608401610530565b6000806105b1610b00565b5091509150816001600160701b0316871080156105d65750806001600160701b031686105b61062c5760405162461bcd60e51b815260206004820152602160248201527f556e697377617056323a20494e53554646494349454e545f4c495155494449546044820152605960f81b6064820152608401610530565b60065460075460009182916001600160a01b0391821691908116908916821480159061066a5750806001600160a01b0316896001600160a01b031614155b6106ae5760405162461bcd60e51b8152602060048201526015602482015274556e697377617056323a20494e56414c49445f544f60581b6044820152606401610530565b8a156106bf576106bf828a8d61197a565b89156106d0576106d0818a8c61197a565b861561077b576040516304347a1760e21b81526001600160a01b038a16906310d1e85c9061070a9033908f908f908e908e906004016124b7565b600060405180830381600087803b1580156107625760405162461bcd60e51b81526020600482015260256024820152600080516020612683833981519152604482019081526420636f646560d81b6064830152608482fd5b505af1158015610776573d6000803e3d6000fd5b505050505b6040516370a0823160e01b81523060048201526001600160a01b038316906370a082319060240160206040518083038186803b1580156107f85760405162461bcd60e51b81526020600482015260256024820152600080516020612683833981519152604482019081526420636f646560d81b6064830152608482fd5b505afa15801561080c573d6000803e3d6000fd5b505050506040513d601f19601f820116820180604052508101906108309190612503565b6040516370a0823160e01b81523060048201529094506001600160a01b038216906370a082319060240160206040518083038186803b1580156108b05760405162461bcd60e51b81526020600482015260256024820152600080516020612683833981519152604482019081526420636f646560d81b6064830152608482fd5b505afa1580156108c4573d6000803e3d6000fd5b505050506040513d601f19601f820116820180604052508101906108e89190612503565b92505050600089856001600160701b03166109039190612535565b831161091057600061092d565b6109238a6001600160701b038716612535565b61092d9084612535565b905060006109448a6001600160701b038716612535565b831161095157600061096e565b6109648a6001600160701b038716612535565b61096e9084612535565b9050600082118061097f5750600081115b6109d75760405162461bcd60e51b8152602060048201526024808201527f556e697377617056323a20494e53554646494349454e545f494e5055545f414d60448201526313d5539560e21b6064820152608401610530565b60006109e4836003612548565b6109f0866103e8612548565b6109fa9190612535565b90506000610a09836003612548565b610a15866103e8612548565b610a1f9190612535565b9050610a376001600160701b03808916908a16612548565b610a4490620f4240612548565b610a4e8284612548565b1015610a8b5760405162461bcd60e51b815260206004820152600c60248201526b556e697377617056323a204b60a01b6044820152606401610530565b5050610a9984848888611a95565b60408051838152602081018390529081018c9052606081018b90526001600160a01b038a169033907fd78ad95fa46c994b6551d0da85fc275fe613ce37657fb8d5e3d130840159d8229060800160405180910390a350506001600c55505050505050505050565b6008546001600160701b0380821692600160701b830490911691600160e01b900463ffffffff1690565b6000610b37338484611c4d565b5060015b92915050565b6001600160a01b038316600090815260026020908152604080832033845290915281205460001914610ba6576001600160a01b038416600090815260026020908152604080832033845290915281208054849290610ba0908490612535565b90915550505b610bb1848484611caf565b5060019392505050565b6005546001600160a01b03163314610c0c5760405162461bcd60e51b81526020600482015260146024820152732ab734b9bbb0b82b191d102327a92124a22222a760611b6044820152606401610530565b600680546001600160a01b039384166001600160a01b03199182161790915560078054929093169116179055565b6000600c54600114610c5e5760405162461bcd60e51b81526004016105309061248c565b6000600c81905580610c6e610b00565b506006546040516370a0823160e01b81523060048201529294509092506000916001600160a01b03909116906370a082319060240160206040518083038186803b158015610cf95760405162461bcd60e51b81526020600482015260256024820152600080516020612683833981519152604482019081526420636f646560d81b6064830152608482fd5b505afa158015610d0d573d6000803e3d6000fd5b505050506040513d601f19601f82011682018060405250810190610d319190612503565b6007546040516370a0823160e01b81523060048201529192506000916001600160a01b03909116906370a082319060240160206040518083038186803b158015610db85760405162461bcd60e51b81526020600482015260256024820152600080516020612683833981519152604482019081526420636f646560d81b6064830152608482fd5b505afa158015610dcc573d6000803e3d6000fd5b505050506040513d601f19601f82011682018060405250810190610df09190612503565b90506000610e076001600160701b03861684612535565b90506000610e1e6001600160701b03861684612535565b90506000610e2c8787611d50565b60008054919250819003610e6d576103e8610e4f610e4a8587612548565b611edc565b610e599190612535565b9850610e6860006103e8611f4c565b610eb4565b610eb16001600160701b038916610e848387612548565b610e8e9190612575565b6001600160701b038916610ea28487612548565b610eac9190612575565b611fd5565b98505b60008911610f155760405162461bcd60e51b815260206004820152602860248201527f556e697377617056323a20494e53554646494349454e545f4c495155494449546044820152671657d3525395115160c21b6064820152608401610530565b610f1f8a8a611f4c565b610f2b86868a8a611a95565b8115610f5457600854610f50906001600160701b03600160701b820481169116612548565b600b555b604080518581526020810185905233917f4c209b5fc8ad50758f13e2e1088ba56a560dff690a1c6fef26394f4c03821c4f910160405180910390a250506001600c5550949695505050505050565b600080600c54600114610fc75760405162461bcd60e51b81526004016105309061248c565b6000600c81905580610fd7610b00565b506006546007546040516370a0823160e01b81523060048201529395509193506001600160a01b039081169291169060009083906370a082319060240160206040518083038186803b15801561106a5760405162461bcd60e51b81526020600482015260256024820152600080516020612683833981519152604482019081526420636f646560d81b6064830152608482fd5b505afa15801561107e573d6000803e3d6000fd5b505050506040513d601f19601f820116820180604052508101906110a29190612503565b6040516370a0823160e01b81523060048201529091506000906001600160a01b038416906370a082319060240160206040518083038186803b1580156111255760405162461bcd60e51b81526020600482015260256024820152600080516020612683833981519152604482019081526420636f646560d81b6064830152608482fd5b505afa158015611139573d6000803e3d6000fd5b505050506040513d601f19601f8201168201806040525081019061115d9190612503565b3060009081526001602052604081205491925061117a8888611d50565b6000549091508061118b8685612548565b6111959190612575565b9a50806111a28585612548565b6111ac9190612575565b995060008b1180156111be575060008a115b61121b5760405162461bcd60e51b815260206004820152602860248201527f556e697377617056323a20494e53554646494349454e545f4c495155494449546044820152671657d0955493915160c21b6064820152608401610530565b6112253084611fed565b611230878d8d61197a565b61123b868d8c61197a565b6040516370a0823160e01b81523060048201526001600160a01b038816906370a082319060240160206040518083038186803b1580156112b85760405162461bcd60e51b81526020600482015260256024820152600080516020612683833981519152604482019081526420636f646560d81b6064830152608482fd5b505afa1580156112cc573d6000803e3d6000fd5b505050506040513d601f19601f820116820180604052508101906112f09190612503565b6040516370a0823160e01b81523060048201529095506001600160a01b038716906370a082319060240160206040518083038186803b1580156113705760405162461bcd60e51b81526020600482015260256024820152600080516020612683833981519152604482019081526420636f646560d81b6064830152608482fd5b505afa158015611384573d6000803e3d6000fd5b505050506040513d601f19601f820116820180604052508101906113a89190612503565b93506113b685858b8b611a95565b81156113df576008546113db906001600160701b03600160701b820481169116612548565b600b555b604080518c8152602081018c90526001600160a01b038e169133917fdccd412f0b1252819cb1fd330b93224ca42612892bb3f4f789976e6d81936496910160405180910390a35050505050505050506001600c81905550915091565b6000610b37338484611caf565b600c5460011461146a5760405162461bcd60e51b81526004016105309061248c565b6000600c556006546007546008546040516370a0823160e01b81523060048201526001600160a01b03938416939092169161155691849186916001600160701b03169083906370a08231906024015b60206040518083038186803b15801561150f5760405162461bcd60e51b81526020600482015260256024820152600080516020612683833981519152604482019081526420636f646560d81b6064830152608482fd5b505afa158015611523573d6000803e3d6000fd5b505050506040513d601f19601f820116820180604052508101906115479190612503565b6115519190612535565b61197a565b6008546040516370a0823160e01b815230600482015261159e9183918691600160701b90046001600160701b0316906001600160a01b038416906370a08231906024016114b9565b50506001600c5550565b428410156115ed5760405162461bcd60e51b8152602060048201526012602482015271155b9a5cddd85c158c8e881156141254915160721b6044820152606401610530565b6003546001600160a01b038816600090815260046020526040812080549192917f99862f0478c2b3a8dcd67f078739cb4bdd9ef7b7f8f0ab9fadaec22c518882e2918b918b918b91908761164083612589565b909155506040805160208101969096526001600160a01b0394851690860152929091166060840152608083015260a082015260c0810187905260e001604051602081830303815290604052805190602001206040516020016116b992919061190160f01b81526002810192909252602282015260420190565b60408051601f198184030181528282528051602091820120600080855291840180845281905260ff88169284019290925260608301869052608083018590529092509060019060a0016020604051602081039080840390855afa158015611724573d6000803e3d6000fd5b5050604051601f1901519150506001600160a01b0381161580159061175a5750886001600160a01b0316816001600160a01b0316145b6117a65760405162461bcd60e51b815260206004820152601c60248201527f556e697377617056323a20494e56414c49445f5349474e4154555245000000006044820152606401610530565b6117b1898989611c4d565b505050505050505050565b600c546001146117de5760405162461bcd60e51b81526004016105309061248c565b6000600c556006546040516370a0823160e01b8152306004820152611973916001600160a01b0316906370a082319060240160206040518083038186803b1580156118665760405162461bcd60e51b81526020600482015260256024820152600080516020612683833981519152604482019081526420636f646560d81b6064830152608482fd5b505afa15801561187a573d6000803e3d6000fd5b505050506040513d601f19601f8201168201806040525081019061189e9190612503565b6007546040516370a0823160e01b81523060048201526001600160a01b03909116906370a082319060240160206040518083038186803b15801561191f5760405162461bcd60e51b81526020600482015260256024820152600080516020612683833981519152604482019081526420636f646560d81b6064830152608482fd5b505afa158015611933573d6000803e3d6000fd5b505050506040513d601f19601f820116820180604052508101906119579190612503565b6008546001600160701b0380821691600160701b900416611a95565b6001600c55565b604080516001600160a01b038481166024830152604480830185905283518084039091018152606490920183526020820180516001600160e01b031663a9059cbb60e01b17905291516000928392908716916119d691906125a2565b6000604051808303816000865af19150503d8060008114611a13576040519150601f19603f3d011682016040523d82523d6000602084013e611a18565b606091505b5091509150818015611a42575080511580611a42575080806020019051810190611a4291906125be565b611a8e5760405162461bcd60e51b815260206004820152601a60248201527f556e697377617056323a205452414e534645525f4641494c45440000000000006044820152606401610530565b5050505050565b6001600160701b038411801590611ab357506001600160701b038311155b611af55760405162461bcd60e51b8152602060048201526013602482015272556e697377617056323a204f564552464c4f5760681b6044820152606401610530565b6000611b06640100000000426125e3565b60085490915063ffffffff600160e01b9091048116820390811615801590611b3657506001600160701b03841615155b8015611b4a57506001600160701b03831615155b15611bb5578063ffffffff16611b7285611b6386612070565b6001600160e01b031690612089565b600980546001600160e01b03929092169290920201905563ffffffff8116611b9d84611b6387612070565b600a80546001600160e01b0392909216929092020190555b506008805463ffffffff8316600160e01b026001600160e01b036001600160701b03888116600160701b9081026001600160e01b03199095168b83161794909417918216831794859055604080519382169282169290921783529290930490911660208201527f1c411e9a96e071241c2f21f7726b17ae89e3cab4c78be50e062b03a9fffbbad1910160405180910390a15050505050565b6001600160a01b0383811660008181526002602090815260408083209487168084529482529182902085905590518481527f8c5be1e5ebec7d5bd14f71427d1e84f3dd0314c0f7b2291e5b200ac8c7c3b92591015b60405180910390a3505050565b6001600160a01b03831660009081526001602052604081208054839290611cd7908490612535565b90915550506001600160a01b03821660009081526001602052604081208054839290611d049084906125f7565b92505081905550816001600160a01b0316836001600160a01b03167fddf252ad1be2c89b69c2b068fc378daa952ba7f163c4a11628f55a4df523b3ef83604051611ca291815260200190565b600080600560009054906101000a90046001600160a01b03166001600160a01b031663017e7e586040518163ffffffff1660e01b815260040160206040518083038186803b158015611ddf5760405162461bcd60e51b81526020600482015260256024820152600080516020612683833981519152604482019081526420636f646560d81b6064830152608482fd5b505afa158015611df3573d6000803e3d6000fd5b505050506040513d601f19601f82011682018060405250810190611e17919061260a565b600b546001600160a01b038216158015945091925090611ec8578015611ec3576000611e52610e4a6001600160701b03808816908916612548565b90506000611e5f83611edc565b905080821115611ec0576000611e758284612535565b600054611e829190612548565b9050600082611e92856005612548565b611e9c91906125f7565b90506000611eaa8284612575565b90508015611ebc57611ebc8782611f4c565b5050505b50505b611ed4565b8015611ed4576000600b555b505092915050565b60006003821115611f3d5750806000611ef6600283612575565b611f019060016125f7565b90505b81811015611f3757905080600281611f1c8186612575565b611f2691906125f7565b611f309190612575565b9050611f04565b50919050565b8115611f47575060015b919050565b80600080828254611f5d91906125f7565b90915550506001600160a01b03821660009081526001602052604081208054839290611f8a9084906125f7565b90915550506040518181526001600160a01b038316906000907fddf252ad1be2c89b69c2b068fc378daa952ba7f163c4a11628f55a4df523b3ef906020015b60405180910390a35050565b6000818310611fe45781611fe6565b825b9392505050565b6001600160a01b03821660009081526001602052604081208054839290612015908490612535565b925050819055508060008082825461202d9190612535565b90915550506040518181526000906001600160a01b038416907fddf252ad1be2c89b69c2b068fc378daa952ba7f163c4a11628f55a4df523b3ef90602001611fc9565b6000610b3b600160701b6001600160701b03841661262a565b6000611fe66001600160701b0383168461265c565b60405162461bcd60e51b815260206004820152602260248201527f414249206465636f64696e673a207475706c65206461746120746f6f2073686f6044820152611c9d60f21b6064820152608481fd5b6001600160a01b038116811461210357600080fd5b50565b60405162461bcd60e51b815260206004820152602b60248201527f414249206465636f64696e673a20696e76616c69642063616c6c64617461206160448201526a727261792073747269646560a81b6064820152608481fd5b60008060008060006080868803121561217a5761217a61209e565b8535945060208087013594506040870135612194816120ee565b9350606087013567ffffffffffffffff808211156121fc5760405162461bcd60e51b815260048101849052602260248201527f414249206465636f64696e673a20696e76616c6964207475706c65206f666673604482015261195d60f21b6064820152608481fd5b818901915089601f8301126122645760405162461bcd60e51b815260048101849052602b60248201527f414249206465636f64696e673a20696e76616c69642063616c6c64617461206160448201526a1c9c985e481bd9999cd95d60aa1b6064820152608481fd5b8135818111156122c75760405162461bcd60e51b815260048101859052602b60248201527f414249206465636f64696e673a20696e76616c69642063616c6c64617461206160448201526a0e4e4c2f240d8cadccee8d60ab1b6064820152608481fd5b8a848285010111156122db576122db612106565b979a96995094975001949392505050565b60005b838110156123075781810151838201526020016122ef565b50506000910152565b602081526000825180602084015261232f8160408501602087016122ec565b601f01601f19169190910160400192915050565b600080604083850312156123595761235961209e565b8235612364816120ee565b946020939093013593505050565b60008060006060848603121561238a5761238a61209e565b8335612395816120ee565b925060208401356123a5816120ee565b929592945050506040919091013590565b600080604083850312156123cc576123cc61209e565b82356123d7816120ee565b915060208301356123e7816120ee565b809150509250929050565b6000602082840312156124075761240761209e565b8135611fe6816120ee565b600080600080600080600060e0888a0312156124305761243061209e565b873561243b816120ee565b9650602088013561244b816120ee565b95506040880135945060608801359350608088013560ff8116811461246f57600080fd5b9699959850939692959460a0840135945060c09093013592915050565b602080825260119082015270155b9a5cddd85c158c8e881313d0d2d151607a1b604082015260600190565b60018060a01b038616815284602082015283604082015260806060820152816080820152818360a0830137600081830160a090810191909152601f909201601f19160101949350505050565b6000602082840312156125185761251861209e565b5051919050565b634e487b7160e01b600052601160045260246000fd5b81810381811115610b3b57610b3b61251f565b8082028115828204841417610b3b57610b3b61251f565b634e487b7160e01b600052601260045260246000fd5b6000826125845761258461255f565b500490565b60006001820161259b5761259b61251f565b5060010190565b600082516125b48184602087016122ec565b9190910192915050565b6000602082840312156125d3576125d361209e565b81518015158114611fe657600080fd5b6000826125f2576125f261255f565b500690565b80820180821115610b3b57610b3b61251f565b60006020828403121561261f5761261f61209e565b8151611fe6816120ee565b6001600160e01b038281168282168181028316929181158285048214176126535761265361251f565b50505092915050565b60006001600160e01b03838116806126765761267661255f565b9216919091049291505056fe54617267657420636f6e747261637420646f6573206e6f7420636f6e7461696ea26469706673582212207ecc6e768bf274f0d37394c4f37988b550517afd274581f724317eedbf28e8e964736f6c63430008160033a26469706673582212207f3e7091115e7938b092e5aa74a9620e6b0f000d6893993b4ce85e581639c16864736f6c63430008160033",
  "devdoc": {
    "kind": "dev",
    "methods": {},
    "version": 1
  },
  "userdoc": {
    "kind": "user",
    "methods": {},
    "version": 1
  },
  "storageLayout": {
    "storage": [
      {
        "astId": 369,
        "contract": "contracts/UniswapV2Factory.sol:UniswapV2Factory",
        "label": "feeTo",
        "offset": 0,
        "slot": "0",
        "type": "t_address"
      },
      {
        "astId": 372,
        "contract": "contracts/UniswapV2Factory.sol:UniswapV2Factory",
        "label": "feeToSetter",
        "offset": 0,
        "slot": "1",
        "type": "t_address"
      },
      {
        "astId": 379,
        "contract": "contracts/UniswapV2Factory.sol:UniswapV2Factory",
        "label": "getPair",
        "offset": 0,
        "slot": "2",
        "type": "t_mapping(t_address,t_mapping(t_address,t_address))"
      },
      {
        "astId": 383,
        "contract": "contracts/UniswapV2Factory.sol:UniswapV2Factory",
        "label": "allPairs",
        "offset": 0,
        "slot": "3",
        "type": "t_array(t_address)dyn_storage"
      }
    ],
    "types": {
      "t_address": {
        "encoding": "inplace",
        "label": "address",
        "numberOfBytes": "20"
      },
      "t_array(t_address)dyn_storage": {
        "base": "t_address",
        "encoding": "dynamic_array",
        "label": "address[]",
        "numberOfBytes": "32"
      },
      "t_mapping(t_address,t_address)": {
        "encoding": "mapping",
        "key": "t_address",
        "label": "mapping(address => address)",
        "numberOfBytes": "32",
        "value": "t_address"
      },
      "t_mapping(t_address,t_mapping(t_address,t_address))": {
        "encoding": "mapping",
        "key": "t_address",
        "label": "mapping(address => mapping(address => address))",
        "numberOfBytes": "32",
        "value": "t_mapping(t_address,t_address)"
      }
    }
  }
}