{
  "address": "0xa4C923cbfb68817Efe9FD9b2F98D97B7497bb679",
  "abi": [
    {
      "inputs": [
        {
          "internalType": "address",
          "name": "_factory",
          "type": "address"
        }
      ],
      "stateMutability": "nonpayable",
      "type": "constructor"
    },
    {
      "inputs": [],
      "name": "factory",
      "outputs": [
        {
          "internalType": "address",
          "name": "",
          "type": "address"
        }
      ],
      "stateMutability": "view",
      "type": "function"
    },
    {
      "inputs": [],
      "name": "getAllPairsInfo",
      "outputs": [
        {
          "components": [
            {
              "internalType": "address",
              "name": "pair",
              "type": "address"
            },
            {
              "internalType": "address",
              "name": "token0",
              "type": "address"
            },
            {
              "internalType": "address",
              "name": "token1",
              "type": "address"
            },
            {
              "internalType": "uint112",
              "name": "reserve0",
              "type": "uint112"
            },
            {
              "internalType": "uint112",
              "name": "reserve1",
              "type": "uint112"
            },
            {
              "internalType": "uint256",
              "name": "totalSupply",
              "type": "uint256"
            },
            {
              "internalType": "uint256",
              "name": "lpBalance",
              "type": "uint256"
            }
          ],
          "internalType": "struct UniswapV2Query.PairInfo[]",
          "name": "",
          "type": "tuple[]"
        }
      ],
      "stateMutability": "view",
      "type": "function"
    },
    {
      "inputs": [
        {
          "internalType": "address",
          "name": "tokenA",
          "type": "address"
        },
        {
          "internalType": "address",
          "name": "tokenB",
          "type": "address"
        }
      ],
      "name": "getPairInfo",
      "outputs": [
        {
          "components": [
            {
              "internalType": "address",
              "name": "pair",
              "type": "address"
            },
            {
              "internalType": "address",
              "name": "token0",
              "type": "address"
            },
            {
              "internalType": "address",
              "name": "token1",
              "type": "address"
            },
            {
              "internalType": "uint112",
              "name": "reserve0",
              "type": "uint112"
            },
            {
              "internalType": "uint112",
              "name": "reserve1",
              "type": "uint112"
            },
            {
              "internalType": "uint256",
              "name": "totalSupply",
              "type": "uint256"
            },
            {
              "internalType": "uint256",
              "name": "lpBalance",
              "type": "uint256"
            }
          ],
          "internalType": "struct UniswapV2Query.PairInfo",
          "name": "info",
          "type": "tuple"
        }
      ],
      "stateMutability": "view",
      "type": "function"
    }
  ],
  "transactionHash": "0xf020d781773b294ddce83ad70f1393e93cb1c3d68ce0ca1521d8bcd6db6c670e",
  "args": [
    "0xF3c10DB38578992896B993fd6fAfB4E7069a8eAE"
  ],
  "numDeployments": 1,
  "solcInputHash": "9e967dff5c950beaf9cf99ca0144f68b",
  "bytecode": "0x60a060405234801561005d5760405162461bcd60e51b815260206004820152602260248201527f45746865722073656e7420746f206e6f6e2d70617961626c652066756e637469604482019081526137b760f11b6064830152608482fd5b506040516111aa3803806111aa83398101604081905261007c9161008d565b6001600160a01b0316608052610108565b6000602082840312156100ea5760405162461bcd60e51b815260206004820152602260248201527f414249206465636f64696e673a207475706c65206461746120746f6f2073686f6044820152611c9d60f21b6064820152608481fd5b81516001600160a01b038116811461010157600080fd5b9392505050565b60805161107261013860003960008181610136015281816101d0015281816106ce015261084601526110726000f3fe608060405234801561005d5760405162461bcd60e51b815260206004820152602260248201527f45746865722073656e7420746f206e6f6e2d70617961626c652066756e637469604482019081526137b760f11b6064830152608482fd5b506004361061008e5760003560e01c8063400f7a1e146100f35780635c42646c1461011c578063c45a015514610131575b60405162461bcd60e51b815260206004820152603560248201527f436f6e747261637420646f6573206e6f7420686176652066616c6c6261636b2060448201908152746e6f7220726563656976652066756e6374696f6e7360581b6064830152608482fd5b610106610101366004610e45565b610170565b6040516101139190610ee2565b60405180910390f35b6101246106c8565b6040516101139190610ef0565b6101587f000000000000000000000000000000000000000000000000000000000000000081565b6040516001600160a01b039091168152602001610113565b6040805160e081018252600080825260208201819052918101829052606081018290526080810182905260a0810182905260c081019190915260405163e6a4390560e01b81526001600160a01b03848116600483015283811660248301527f0000000000000000000000000000000000000000000000000000000000000000169063e6a439059060440160206040518083038186803b1580156102505760405162461bcd60e51b8152602060048201526025602482015260008051602061101d833981519152604482019081526420636f646560d81b6064830152608482fd5b505afa158015610264573d6000803e3d6000fd5b505050506040513d601f19601f820116820180604052508101906102889190610f3e565b6001600160a01b03168082526102e45760405162461bcd60e51b815260206004820152601e60248201527f556e697377617056323a20504149525f444f45535f4e4f545f45584953540000604482015260640160405180910390fd5b600081600001519050806001600160a01b0316630dfe16816040518163ffffffff1660e01b815260040160206040518083038186803b1580156103645760405162461bcd60e51b8152602060048201526025602482015260008051602061101d833981519152604482019081526420636f646560d81b6064830152608482fd5b505afa158015610378573d6000803e3d6000fd5b505050506040513d601f19601f8201168201806040525081019061039c9190610f3e565b82602001906001600160a01b031690816001600160a01b031681525050806001600160a01b031663d21220a76040518163ffffffff1660e01b815260040160206040518083038186803b1580156104305760405162461bcd60e51b8152602060048201526025602482015260008051602061101d833981519152604482019081526420636f646560d81b6064830152608482fd5b505afa158015610444573d6000803e3d6000fd5b505050506040513d601f19601f820116820180604052508101906104689190610f3e565b82604001906001600160a01b031690816001600160a01b031681525050806001600160a01b0316630902f1ac6040518163ffffffff1660e01b815260040160606040518083038186803b1580156104fc5760405162461bcd60e51b8152602060048201526025602482015260008051602061101d833981519152604482019081526420636f646560d81b6064830152608482fd5b505afa158015610510573d6000803e3d6000fd5b505050506040513d601f19601f820116820180604052508101906105349190610f81565b506001600160701b039081166080850152166060830152604080516318160ddd60e01b815290516001600160a01b038316916318160ddd916004808301926020929190829003018186803b1580156105c95760405162461bcd60e51b8152602060048201526025602482015260008051602061101d833981519152604482019081526420636f646560d81b6064830152608482fd5b505afa1580156105dd573d6000803e3d6000fd5b505050506040513d601f19601f820116820180604052508101906106019190610fd4565b60a08301526040516370a0823160e01b81523360048201526001600160a01b038216906370a082319060240160206040518083038186803b1580156106835760405162461bcd60e51b8152602060048201526025602482015260008051602061101d833981519152604482019081526420636f646560d81b6064830152608482fd5b505afa158015610697573d6000803e3d6000fd5b505050506040513d601f19601f820116820180604052508101906106bb9190610fd4565b60c0830152505b92915050565b606060007f00000000000000000000000000000000000000000000000000000000000000006001600160a01b031663574f2ba36040518163ffffffff1660e01b815260040160206040518083038186803b1580156107635760405162461bcd60e51b8152602060048201526025602482015260008051602061101d833981519152604482019081526420636f646560d81b6064830152608482fd5b505afa158015610777573d6000803e3d6000fd5b505050506040513d601f19601f8201168201806040525081019061079b9190610fd4565b905060008167ffffffffffffffff8111156107b8576107b8610ff0565b60405190808252806020026020018201604052801561081f57816020015b6040805160e08101825260008082526020808301829052928201819052606082018190526080820181905260a0820181905260c082015282526000199092019101816107d65790505b50905060005b82811015610dd657604051631e3dd18b60e01b8152600481018290526000907f00000000000000000000000000000000000000000000000000000000000000006001600160a01b031690631e3dd18b9060240160206040518083038186803b1580156108ce5760405162461bcd60e51b8152602060048201526025602482015260008051602061101d833981519152604482019081526420636f646560d81b6064830152608482fd5b505afa1580156108e2573d6000803e3d6000fd5b505050506040513d601f19601f820116820180604052508101906109069190610f3e565b905060008190508184848151811061092057610920611006565b6020026020010151600001906001600160a01b031690816001600160a01b031681525050806001600160a01b0316630dfe16816040518163ffffffff1660e01b815260040160206040518083038186803b1580156109bb5760405162461bcd60e51b8152602060048201526025602482015260008051602061101d833981519152604482019081526420636f646560d81b6064830152608482fd5b505afa1580156109cf573d6000803e3d6000fd5b505050506040513d601f19601f820116820180604052508101906109f39190610f3e565b848481518110610a0557610a05611006565b6020026020010151602001906001600160a01b031690816001600160a01b031681525050806001600160a01b031663d21220a76040518163ffffffff1660e01b815260040160206040518083038186803b158015610aa05760405162461bcd60e51b8152602060048201526025602482015260008051602061101d833981519152604482019081526420636f646560d81b6064830152608482fd5b505afa158015610ab4573d6000803e3d6000fd5b505050506040513d601f19601f82011682018060405250810190610ad89190610f3e565b848481518110610aea57610aea611006565b6020026020010151604001906001600160a01b031690816001600160a01b031681525050806001600160a01b0316630902f1ac6040518163ffffffff1660e01b815260040160606040518083038186803b158015610b855760405162461bcd60e51b8152602060048201526025602482015260008051602061101d833981519152604482019081526420636f646560d81b6064830152608482fd5b505afa158015610b99573d6000803e3d6000fd5b505050506040513d601f19601f82011682018060405250810190610bbd9190610f81565b50858581518110610bd057610bd0611006565b6020026020010151606001868681518110610bed57610bed611006565b6020026020010151608001826001600160701b03166001600160701b0316815250826001600160701b03166001600160701b03168152505050806001600160a01b03166318160ddd6040518163ffffffff1660e01b815260040160206040518083038186803b158015610c9d5760405162461bcd60e51b8152602060048201526025602482015260008051602061101d833981519152604482019081526420636f646560d81b6064830152608482fd5b505afa158015610cb1573d6000803e3d6000fd5b505050506040513d601f19601f82011682018060405250810190610cd59190610fd4565b848481518110610ce757610ce7611006565b602090810291909101015160a001526040516370a0823160e01b81523360048201526001600160a01b038216906370a082319060240160206040518083038186803b158015610d735760405162461bcd60e51b8152602060048201526025602482015260008051602061101d833981519152604482019081526420636f646560d81b6064830152608482fd5b505afa158015610d87573d6000803e3d6000fd5b505050506040513d601f19601f82011682018060405250810190610dab9190610fd4565b848481518110610dbd57610dbd611006565b602090810291909101015160c001525050600101610825565b5092915050565b60405162461bcd60e51b815260206004820152602260248201527f414249206465636f64696e673a207475706c65206461746120746f6f2073686f6044820152611c9d60f21b6064820152608481fd5b6001600160a01b0381168114610e4257600080fd5b50565b60008060408385031215610e5b57610e5b610ddd565b8235610e6681610e2d565b91506020830135610e7681610e2d565b809150509250929050565b60018060a01b038082511683528060208301511660208401528060408301511660408401525060608101516001600160701b038082166060850152806080840151166080850152505060a081015160a083015260c081015160c08301525050565b60e081016106c28284610e81565b6020808252825182820181905260009190848201906040850190845b81811015610f3257610f1f838551610e81565b9284019260e09290920191600101610f0c565b50909695505050505050565b600060208284031215610f5357610f53610ddd565b8151610f5e81610e2d565b9392505050565b80516001600160701b0381168114610f7c57600080fd5b919050565b600080600060608486031215610f9957610f99610ddd565b610fa284610f65565b9250610fb060208501610f65565b9150604084015163ffffffff81168114610fc957600080fd5b809150509250925092565b600060208284031215610fe957610fe9610ddd565b5051919050565b634e487b7160e01b600052604160045260246000fd5b634e487b7160e01b600052603260045260246000fdfe54617267657420636f6e747261637420646f6573206e6f7420636f6e7461696ea264697066735822122068ab44adf09be2a8c5fb20e3e4085561f0db8b58c2629a8cc3ca18a19a5d214264736f6c63430008160033",
  "devdoc": {
    "kind": "dev",
    "methods": {},
    "version": 1
  },
  "userdoc": {
    "kind": "user",
    "methods": {},
    "version": 1
  },
  "storageLayout": {
    "storage": [],
    "types": null
  }
}